{
  "contractName": "BoredDavid",
  "abi": [
    {
      "inputs": [
        {
          "internalType": "string",
          "name": "_name",
          "type": "string"
        },
        {
          "internalType": "string",
          "name": "_symbol",
          "type": "string"
        },
        {
          "internalType": "string",
          "name": "_initNotRevealedUri",
          "type": "string"
        },
        {
          "internalType": "uint256",
          "name": "_rareCost",
          "type": "uint256"
        },
        {
          "internalType": "uint256",
          "name": "_commonCost",
          "type": "uint256"
        },
        {
          "internalType": "uint256",
          "name": "_maxSupply",
          "type": "uint256"
        },
        {
          "internalType": "uint256",
          "name": "_maxMintAmount",
          "type": "uint256"
        },
        {
          "internalType": "uint256",
          "name": "_startingTokenId",
          "type": "uint256"
        }
      ],
      "stateMutability": "nonpayable",
      "type": "constructor"
    },
    {
      "anonymous": false,
      "inputs": [
        {
          "indexed": true,
          "internalType": "address",
          "name": "user",
          "type": "address"
        },
        {
          "indexed": true,
          "internalType": "uint256",
          "name": "tokenId",
          "type": "uint256"
        },
        {
          "indexed": true,
          "internalType": "uint8",
          "name": "rarity",
          "type": "uint8"
        }
      ],
      "name": "AirdropClaimed",
      "type": "event"
    },
    {
      "anonymous": false,
      "inputs": [
        {
          "indexed": true,
          "internalType": "address",
          "name": "owner",
          "type": "address"
        },
        {
          "indexed": true,
          "internalType": "address",
          "name": "approved",
          "type": "address"
        },
        {
          "indexed": true,
          "internalType": "uint256",
          "name": "tokenId",
          "type": "uint256"
        }
      ],
      "name": "Approval",
      "type": "event"
    },
    {
      "anonymous": false,
      "inputs": [
        {
          "indexed": true,
          "internalType": "address",
          "name": "owner",
          "type": "address"
        },
        {
          "indexed": true,
          "internalType": "address",
          "name": "operator",
          "type": "address"
        },
        {
          "indexed": false,
          "internalType": "bool",
          "name": "approved",
          "type": "bool"
        }
      ],
      "name": "ApprovalForAll",
      "type": "event"
    },
    {
      "anonymous": false,
      "inputs": [
        {
          "indexed": true,
          "internalType": "address",
          "name": "user",
          "type": "address"
        },
        {
          "indexed": true,
          "internalType": "uint256",
          "name": "tokenId",
          "type": "uint256"
        },
        {
          "indexed": true,
          "internalType": "uint8",
          "name": "rarity",
          "type": "uint8"
        }
      ],
      "name": "OwnerMint",
      "type": "event"
    },
    {
      "anonymous": false,
      "inputs": [
        {
          "indexed": true,
          "internalType": "address",
          "name": "previousOwner",
          "type": "address"
        },
        {
          "indexed": true,
          "internalType": "address",
          "name": "newOwner",
          "type": "address"
        }
      ],
      "name": "OwnershipTransferred",
      "type": "event"
    },
    {
      "anonymous": false,
      "inputs": [
        {
          "indexed": true,
          "internalType": "address",
          "name": "from",
          "type": "address"
        },
        {
          "indexed": true,
          "internalType": "address",
          "name": "to",
          "type": "address"
        },
        {
          "indexed": true,
          "internalType": "uint256",
          "name": "tokenId",
          "type": "uint256"
        }
      ],
      "name": "Transfer",
      "type": "event"
    },
    {
      "anonymous": false,
      "inputs": [
        {
          "indexed": true,
          "internalType": "address",
          "name": "user",
          "type": "address"
        },
        {
          "indexed": true,
          "internalType": "uint256",
          "name": "tokenId",
          "type": "uint256"
        },
        {
          "indexed": true,
          "internalType": "uint8",
          "name": "rarity",
          "type": "uint8"
        }
      ],
      "name": "UserMint",
      "type": "event"
    },
    {
      "inputs": [
        {
          "internalType": "address",
          "name": "to",
          "type": "address"
        },
        {
          "internalType": "uint256",
          "name": "tokenId",
          "type": "uint256"
        }
      ],
      "name": "approve",
      "outputs": [],
      "stateMutability": "nonpayable",
      "type": "function"
    },
    {
      "inputs": [
        {
          "internalType": "address",
          "name": "owner",
          "type": "address"
        }
      ],
      "name": "balanceOf",
      "outputs": [
        {
          "internalType": "uint256",
          "name": "",
          "type": "uint256"
        }
      ],
      "stateMutability": "view",
      "type": "function",
      "constant": true
    },
    {
      "inputs": [
        {
          "internalType": "uint256",
          "name": "tokenId",
          "type": "uint256"
        }
      ],
      "name": "burn",
      "outputs": [],
      "stateMutability": "nonpayable",
      "type": "function"
    },
    {
      "inputs": [],
      "name": "commonCost",
      "outputs": [
        {
          "internalType": "uint256",
          "name": "",
          "type": "uint256"
        }
      ],
      "stateMutability": "view",
      "type": "function",
      "constant": true
    },
    {
      "inputs": [],
      "name": "commonSaleEnabled",
      "outputs": [
        {
          "internalType": "bool",
          "name": "",
          "type": "bool"
        }
      ],
      "stateMutability": "view",
      "type": "function",
      "constant": true
    },
    {
      "inputs": [
        {
          "internalType": "address",
          "name": "",
          "type": "address"
        }
      ],
      "name": "eligibleForAirdrop",
      "outputs": [
        {
          "internalType": "bool",
          "name": "",
          "type": "bool"
        }
      ],
      "stateMutability": "view",
      "type": "function",
      "constant": true
    },
    {
      "inputs": [
        {
          "internalType": "uint256",
          "name": "tokenId",
          "type": "uint256"
        }
      ],
      "name": "getApproved",
      "outputs": [
        {
          "internalType": "address",
          "name": "",
          "type": "address"
        }
      ],
      "stateMutability": "view",
      "type": "function",
      "constant": true
    },
    {
      "inputs": [
        {
          "internalType": "address",
          "name": "owner",
          "type": "address"
        },
        {
          "internalType": "address",
          "name": "operator",
          "type": "address"
        }
      ],
      "name": "isApprovedForAll",
      "outputs": [
        {
          "internalType": "bool",
          "name": "",
          "type": "bool"
        }
      ],
      "stateMutability": "view",
      "type": "function",
      "constant": true
    },
    {
      "inputs": [],
      "name": "maxMintAmount",
      "outputs": [
        {
          "internalType": "uint256",
          "name": "",
          "type": "uint256"
        }
      ],
      "stateMutability": "view",
      "type": "function",
      "constant": true
    },
    {
      "inputs": [],
      "name": "maxSupply",
      "outputs": [
        {
          "internalType": "uint256",
          "name": "",
          "type": "uint256"
        }
      ],
      "stateMutability": "view",
      "type": "function",
      "constant": true
    },
    {
      "inputs": [],
      "name": "name",
      "outputs": [
        {
          "internalType": "string",
          "name": "",
          "type": "string"
        }
      ],
      "stateMutability": "view",
      "type": "function",
      "constant": true
    },
    {
      "inputs": [],
      "name": "notRevealedUri",
      "outputs": [
        {
          "internalType": "string",
          "name": "",
          "type": "string"
        }
      ],
      "stateMutability": "view",
      "type": "function",
      "constant": true
    },
    {
      "inputs": [],
      "name": "owner",
      "outputs": [
        {
          "internalType": "address",
          "name": "",
          "type": "address"
        }
      ],
      "stateMutability": "view",
      "type": "function",
      "constant": true
    },
    {
      "inputs": [
        {
          "internalType": "uint256",
          "name": "tokenId",
          "type": "uint256"
        }
      ],
      "name": "ownerOf",
      "outputs": [
        {
          "internalType": "address",
          "name": "",
          "type": "address"
        }
      ],
      "stateMutability": "view",
      "type": "function",
      "constant": true
    },
    {
      "inputs": [],
      "name": "paused",
      "outputs": [
        {
          "internalType": "bool",
          "name": "",
          "type": "bool"
        }
      ],
      "stateMutability": "view",
      "type": "function",
      "constant": true
    },
    {
      "inputs": [],
      "name": "rareCost",
      "outputs": [
        {
          "internalType": "uint256",
          "name": "",
          "type": "uint256"
        }
      ],
      "stateMutability": "view",
      "type": "function",
      "constant": true
    },
    {
      "inputs": [],
      "name": "rareSaleEnabled",
      "outputs": [
        {
          "internalType": "bool",
          "name": "",
          "type": "bool"
        }
      ],
      "stateMutability": "view",
      "type": "function",
      "constant": true
    },
    {
      "inputs": [],
      "name": "renounceOwnership",
      "outputs": [],
      "stateMutability": "nonpayable",
      "type": "function"
    },
    {
      "inputs": [
        {
          "internalType": "address",
          "name": "from",
          "type": "address"
        },
        {
          "internalType": "address",
          "name": "to",
          "type": "address"
        },
        {
          "internalType": "uint256",
          "name": "tokenId",
          "type": "uint256"
        }
      ],
      "name": "safeTransferFrom",
      "outputs": [],
      "stateMutability": "nonpayable",
      "type": "function"
    },
    {
      "inputs": [
        {
          "internalType": "address",
          "name": "from",
          "type": "address"
        },
        {
          "internalType": "address",
          "name": "to",
          "type": "address"
        },
        {
          "internalType": "uint256",
          "name": "tokenId",
          "type": "uint256"
        },
        {
          "internalType": "bytes",
          "name": "_data",
          "type": "bytes"
        }
      ],
      "name": "safeTransferFrom",
      "outputs": [],
      "stateMutability": "nonpayable",
      "type": "function"
    },
    {
      "inputs": [
        {
          "internalType": "address",
          "name": "operator",
          "type": "address"
        },
        {
          "internalType": "bool",
          "name": "approved",
          "type": "bool"
        }
      ],
      "name": "setApprovalForAll",
      "outputs": [],
      "stateMutability": "nonpayable",
      "type": "function"
    },
    {
      "inputs": [],
      "name": "startingTokenId",
      "outputs": [
        {
          "internalType": "uint256",
          "name": "",
          "type": "uint256"
        }
      ],
      "stateMutability": "view",
      "type": "function",
      "constant": true
    },
    {
      "inputs": [],
      "name": "symbol",
      "outputs": [
        {
          "internalType": "string",
          "name": "",
          "type": "string"
        }
      ],
      "stateMutability": "view",
      "type": "function",
      "constant": true
    },
    {
      "inputs": [
        {
          "internalType": "uint256",
          "name": "index",
          "type": "uint256"
        }
      ],
      "name": "tokenByIndex",
      "outputs": [
        {
          "internalType": "uint256",
          "name": "",
          "type": "uint256"
        }
      ],
      "stateMutability": "view",
      "type": "function",
      "constant": true
    },
    {
      "inputs": [
        {
          "internalType": "address",
          "name": "owner",
          "type": "address"
        },
        {
          "internalType": "uint256",
          "name": "index",
          "type": "uint256"
        }
      ],
      "name": "tokenOfOwnerByIndex",
      "outputs": [
        {
          "internalType": "uint256",
          "name": "",
          "type": "uint256"
        }
      ],
      "stateMutability": "view",
      "type": "function",
      "constant": true
    },
    {
      "inputs": [],
      "name": "totalSupply",
      "outputs": [
        {
          "internalType": "uint256",
          "name": "",
          "type": "uint256"
        }
      ],
      "stateMutability": "view",
      "type": "function",
      "constant": true
    },
    {
      "inputs": [
        {
          "internalType": "address",
          "name": "from",
          "type": "address"
        },
        {
          "internalType": "address",
          "name": "to",
          "type": "address"
        },
        {
          "internalType": "uint256",
          "name": "tokenId",
          "type": "uint256"
        }
      ],
      "name": "transferFrom",
      "outputs": [],
      "stateMutability": "nonpayable",
      "type": "function"
    },
    {
      "inputs": [
        {
          "internalType": "address",
          "name": "newOwner",
          "type": "address"
        }
      ],
      "name": "transferOwnership",
      "outputs": [],
      "stateMutability": "nonpayable",
      "type": "function"
    },
    {
      "inputs": [],
      "name": "claimAirdrop",
      "outputs": [],
      "stateMutability": "nonpayable",
      "type": "function"
    },
    {
      "inputs": [
        {
          "internalType": "uint256",
          "name": "_mintAmount",
          "type": "uint256"
        }
      ],
      "name": "mintCommon",
      "outputs": [],
      "stateMutability": "payable",
      "type": "function",
      "payable": true
    },
    {
      "inputs": [
        {
          "internalType": "uint256",
          "name": "_mintAmount",
          "type": "uint256"
        }
      ],
      "name": "mintRare",
      "outputs": [],
      "stateMutability": "payable",
      "type": "function",
      "payable": true
    },
    {
      "inputs": [
        {
          "internalType": "address",
          "name": "_owner",
          "type": "address"
        }
      ],
      "name": "walletOfOwner",
      "outputs": [
        {
          "internalType": "uint256[]",
          "name": "",
          "type": "uint256[]"
        }
      ],
      "stateMutability": "view",
      "type": "function",
      "constant": true
    },
    {
      "inputs": [
        {
          "internalType": "uint256",
          "name": "tokenId",
          "type": "uint256"
        }
      ],
      "name": "tokenURI",
      "outputs": [
        {
          "internalType": "string",
          "name": "",
          "type": "string"
        }
      ],
      "stateMutability": "view",
      "type": "function",
      "constant": true
    },
    {
      "inputs": [
        {
          "internalType": "bytes4",
          "name": "interfaceId",
          "type": "bytes4"
        }
      ],
      "name": "supportsInterface",
      "outputs": [
        {
          "internalType": "bool",
          "name": "",
          "type": "bool"
        }
      ],
      "stateMutability": "view",
      "type": "function",
      "constant": true
    },
    {
      "inputs": [
        {
          "internalType": "address[]",
          "name": "_users",
          "type": "address[]"
        }
      ],
      "name": "addAddressesToAirdrop",
      "outputs": [],
      "stateMutability": "nonpayable",
      "type": "function"
    },
    {
      "inputs": [
        {
          "internalType": "address[]",
          "name": "_users",
          "type": "address[]"
        }
      ],
      "name": "removeAddressesToAirdrop",
      "outputs": [],
      "stateMutability": "nonpayable",
      "type": "function"
    },
    {
      "inputs": [
        {
          "internalType": "uint256[]",
          "name": "tokenIds",
          "type": "uint256[]"
        },
        {
          "internalType": "string[]",
          "name": "uris",
          "type": "string[]"
        }
      ],
      "name": "unveilNFTs",
      "outputs": [],
      "stateMutability": "nonpayable",
      "type": "function"
    },
    {
      "inputs": [
        {
          "internalType": "uint256",
          "name": "_newCost",
          "type": "uint256"
        }
      ],
      "name": "setRareCost",
      "outputs": [],
      "stateMutability": "nonpayable",
      "type": "function"
    },
    {
      "inputs": [
        {
          "internalType": "uint256",
          "name": "_newCost",
          "type": "uint256"
        }
      ],
      "name": "setCommonCost",
      "outputs": [],
      "stateMutability": "nonpayable",
      "type": "function"
    },
    {
      "inputs": [
        {
          "internalType": "uint256",
          "name": "_newmaxMintAmount",
          "type": "uint256"
        }
      ],
      "name": "setmaxMintAmount",
      "outputs": [],
      "stateMutability": "nonpayable",
      "type": "function"
    },
    {
      "inputs": [
        {
          "internalType": "string",
          "name": "_notRevealedURI",
          "type": "string"
        }
      ],
      "name": "setNotRevealedURI",
      "outputs": [],
      "stateMutability": "nonpayable",
      "type": "function"
    },
    {
      "inputs": [
        {
          "internalType": "bool",
          "name": "_state",
          "type": "bool"
        }
      ],
      "name": "pause",
      "outputs": [],
      "stateMutability": "nonpayable",
      "type": "function"
    },
    {
      "inputs": [
        {
          "internalType": "bool",
          "name": "_state",
          "type": "bool"
        }
      ],
      "name": "enableCommonSale",
      "outputs": [],
      "stateMutability": "nonpayable",
      "type": "function"
    },
    {
      "inputs": [
        {
          "internalType": "bool",
          "name": "_state",
          "type": "bool"
        }
      ],
      "name": "enableRareSale",
      "outputs": [],
      "stateMutability": "nonpayable",
      "type": "function"
    },
    {
      "inputs": [],
      "name": "withdraw",
      "outputs": [],
      "stateMutability": "nonpayable",
      "type": "function"
    }
  ],
  "bytecode": "0x60806040526000601060006101000a81548160ff0219169083151502179055503480156200002c57600080fd5b506040516200624738038062006247833981810160405281019062000052919062000515565b878781600090805190602001906200006c9291906200028d565b508060019080519060200190620000859291906200028d565b505050620000a86200009c620000ea60201b60201c565b620000f260201b60201c565b620000b986620001b860201b60201c565b84600c8190555083600d8190555082600e8190555081600f8190555080601281905550505050505050505062000723565b600033905090565b6000600b60009054906101000a900473ffffffffffffffffffffffffffffffffffffffff16905081600b60006101000a81548173ffffffffffffffffffffffffffffffffffffffff021916908373ffffffffffffffffffffffffffffffffffffffff1602179055508173ffffffffffffffffffffffffffffffffffffffff168173ffffffffffffffffffffffffffffffffffffffff167f8be0079c531659141344cd1fd0a4f28419497f9722a3daafe3b4186f6b6457e060405160405180910390a35050565b620001c8620000ea60201b60201c565b73ffffffffffffffffffffffffffffffffffffffff16620001ee6200026360201b60201c565b73ffffffffffffffffffffffffffffffffffffffff161462000247576040517f08c379a00000000000000000000000000000000000000000000000000000000081526004016200023e906200069c565b60405180910390fd5b80601190805190602001906200025f9291906200028d565b5050565b6000600b60009054906101000a900473ffffffffffffffffffffffffffffffffffffffff16905090565b8280546200029b90620006ed565b90600052602060002090601f016020900481019282620002bf57600085556200030b565b82601f10620002da57805160ff19168380011785556200030b565b828001600101855582156200030b579182015b828111156200030a578251825591602001919060010190620002ed565b5b5090506200031a91906200031e565b5090565b5b80821115620003395760008160009055506001016200031f565b5090565b6000604051905090565b600080fd5b600080fd5b600080fd5b600080fd5b6000601f19601f8301169050919050565b7f4e487b7100000000000000000000000000000000000000000000000000000000600052604160045260246000fd5b620003a6826200035b565b810181811067ffffffffffffffff82111715620003c857620003c76200036c565b5b80604052505050565b6000620003dd6200033d565b9050620003eb82826200039b565b919050565b600067ffffffffffffffff8211156200040e576200040d6200036c565b5b62000419826200035b565b9050602081019050919050565b60005b838110156200044657808201518184015260208101905062000429565b8381111562000456576000848401525b50505050565b6000620004736200046d84620003f0565b620003d1565b90508281526020810184848401111562000492576200049162000356565b5b6200049f84828562000426565b509392505050565b600082601f830112620004bf57620004be62000351565b5b8151620004d18482602086016200045c565b91505092915050565b6000819050919050565b620004ef81620004da565b8114620004fb57600080fd5b50565b6000815190506200050f81620004e4565b92915050565b600080600080600080600080610100898b03121562000539576200053862000347565b5b600089015167ffffffffffffffff8111156200055a57620005596200034c565b5b620005688b828c01620004a7565b985050602089015167ffffffffffffffff8111156200058c576200058b6200034c565b5b6200059a8b828c01620004a7565b975050604089015167ffffffffffffffff811115620005be57620005bd6200034c565b5b620005cc8b828c01620004a7565b9650506060620005df8b828c01620004fe565b9550506080620005f28b828c01620004fe565b94505060a0620006058b828c01620004fe565b93505060c0620006188b828c01620004fe565b92505060e06200062b8b828c01620004fe565b9150509295985092959890939650565b600082825260208201905092915050565b7f4f776e61626c653a2063616c6c6572206973206e6f7420746865206f776e6572600082015250565b6000620006846020836200063b565b915062000691826200064c565b602082019050919050565b60006020820190508181036000830152620006b78162000675565b9050919050565b7f4e487b7100000000000000000000000000000000000000000000000000000000600052602260045260246000fd5b600060028204905060018216806200070657607f821691505b602082108114156200071d576200071c620006be565b5b50919050565b615b1480620007336000396000f3fe6080604052600436106102725760003560e01c80636352211e1161014f5780639f34c004116100c1578063d356e2351161007a578063d356e23514610932578063d5abeb011461095b578063e985e9c514610986578063f2c4ce1e146109c3578063f2fde38b146109ec578063f9b9761f14610a1557610272565b80639f34c00414610824578063a22cb4651461084d578063b4f18d8d14610876578063b88d4fde146108a1578063c1fedc35146108ca578063c87b56dd146108f557610272565b8063880d0db211610113578063880d0db2146107265780638963718b146107515780638c4cc8371461077a5780638da5cb5b146107a357806395d89b41146107ce5780639d025b15146107f957610272565b80636352211e1461064357806370a0823114610680578063715018a6146106bd5780637c3e3cb2146106d45780637f00c7a6146106fd57610272565b806329bdc1bb116101e857806342842e0e116101ac57806342842e0e1461053557806342966c681461055e578063438b6300146105875780634f6ccce7146105c45780635b88349d146106015780635c975abb1461061857610272565b806329bdc1bb146104715780632a4577d01461049c5780632f745c59146104b857806335a6a96f146104f55780633ccfd60b1461051e57610272565b8063095ea7b31161023a578063095ea7b31461037057806318160ddd1461039957806319938631146103c4578063239c70ae1461040157806323b872dd1461042c57806327c4228a1461045557610272565b806301ffc9a71461027757806302329a29146102b457806306fdde03146102dd578063081812fc14610308578063081c8c4414610345575b600080fd5b34801561028357600080fd5b5061029e60048036038101906102999190613c58565b610a3e565b6040516102ab9190613ca0565b60405180910390f35b3480156102c057600080fd5b506102db60048036038101906102d69190613ce7565b610a50565b005b3480156102e957600080fd5b506102f2610ae9565b6040516102ff9190613dad565b60405180910390f35b34801561031457600080fd5b5061032f600480360381019061032a9190613e05565b610b7b565b60405161033c9190613e73565b60405180910390f35b34801561035157600080fd5b5061035a610c00565b6040516103679190613dad565b60405180910390f35b34801561037c57600080fd5b5061039760048036038101906103929190613eba565b610c8e565b005b3480156103a557600080fd5b506103ae610da6565b6040516103bb9190613f09565b60405180910390f35b3480156103d057600080fd5b506103eb60048036038101906103e69190613f24565b610db3565b6040516103f89190613ca0565b60405180910390f35b34801561040d57600080fd5b50610416610dd3565b6040516104239190613f09565b60405180910390f35b34801561043857600080fd5b50610453600480360381019061044e9190613f51565b610dd9565b005b61046f600480360381019061046a9190613e05565b610e39565b005b34801561047d57600080fd5b50610486610f21565b6040516104939190613f09565b60405180910390f35b6104b660048036038101906104b19190613e05565b610f27565b005b3480156104c457600080fd5b506104df60048036038101906104da9190613eba565b61100f565b6040516104ec9190613f09565b60405180910390f35b34801561050157600080fd5b5061051c60048036038101906105179190613e05565b6110b4565b005b34801561052a57600080fd5b5061053361113a565b005b34801561054157600080fd5b5061055c60048036038101906105579190613f51565b61120c565b005b34801561056a57600080fd5b5061058560048036038101906105809190613e05565b61122c565b005b34801561059357600080fd5b506105ae60048036038101906105a99190613f24565b611288565b6040516105bb9190614062565b60405180910390f35b3480156105d057600080fd5b506105eb60048036038101906105e69190613e05565b611336565b6040516105f89190613f09565b60405180910390f35b34801561060d57600080fd5b506106166113a7565b005b34801561062457600080fd5b5061062d6115d9565b60405161063a9190613ca0565b60405180910390f35b34801561064f57600080fd5b5061066a60048036038101906106659190613e05565b6115ec565b6040516106779190613e73565b60405180910390f35b34801561068c57600080fd5b506106a760048036038101906106a29190613f24565b61169e565b6040516106b49190613f09565b60405180910390f35b3480156106c957600080fd5b506106d2611756565b005b3480156106e057600080fd5b506106fb60048036038101906106f69190614362565b6117de565b005b34801561070957600080fd5b50610724600480360381019061071f9190613e05565b61196a565b005b34801561073257600080fd5b5061073b6119f0565b6040516107489190613ca0565b60405180910390f35b34801561075d57600080fd5b5061077860048036038101906107739190613e05565b611a03565b005b34801561078657600080fd5b506107a1600480360381019061079c919061449d565b611a89565b005b3480156107af57600080fd5b506107b8611b9a565b6040516107c59190613e73565b60405180910390f35b3480156107da57600080fd5b506107e3611bc4565b6040516107f09190613dad565b60405180910390f35b34801561080557600080fd5b5061080e611c56565b60405161081b9190613f09565b60405180910390f35b34801561083057600080fd5b5061084b60048036038101906108469190613ce7565b611c5c565b005b34801561085957600080fd5b50610874600480360381019061086f91906144e6565b611cf5565b005b34801561088257600080fd5b5061088b611d0b565b6040516108989190613f09565b60405180910390f35b3480156108ad57600080fd5b506108c860048036038101906108c391906145c7565b611d11565b005b3480156108d657600080fd5b506108df611d73565b6040516108ec9190613ca0565b60405180910390f35b34801561090157600080fd5b5061091c60048036038101906109179190613e05565b611d86565b6040516109299190613dad565b60405180910390f35b34801561093e57600080fd5b5061095960048036038101906109549190613ce7565b611d98565b005b34801561096757600080fd5b50610970611e31565b60405161097d9190613f09565b60405180910390f35b34801561099257600080fd5b506109ad60048036038101906109a8919061464a565b611e37565b6040516109ba9190613ca0565b60405180910390f35b3480156109cf57600080fd5b506109ea60048036038101906109e5919061468a565b611ecb565b005b3480156109f857600080fd5b50610a136004803603810190610a0e9190613f24565b611f61565b005b348015610a2157600080fd5b50610a3c6004803603810190610a37919061449d565b612059565b005b6000610a498261216a565b9050919050565b610a586121e4565b73ffffffffffffffffffffffffffffffffffffffff16610a76611b9a565b73ffffffffffffffffffffffffffffffffffffffff1614610acc576040517f08c379a0000000000000000000000000000000000000000000000000000000008152600401610ac39061471f565b60405180910390fd5b80601060006101000a81548160ff02191690831515021790555050565b606060008054610af89061476e565b80601f0160208091040260200160405190810160405280929190818152602001828054610b249061476e565b8015610b715780601f10610b4657610100808354040283529160200191610b71565b820191906000526020600020905b815481529060010190602001808311610b5457829003601f168201915b5050505050905090565b6000610b86826121ec565b610bc5576040517f08c379a0000000000000000000000000000000000000000000000000000000008152600401610bbc90614812565b60405180910390fd5b6004600083815260200190815260200160002060009054906101000a900473ffffffffffffffffffffffffffffffffffffffff169050919050565b60118054610c0d9061476e565b80601f0160208091040260200160405190810160405280929190818152602001828054610c399061476e565b8015610c865780601f10610c5b57610100808354040283529160200191610c86565b820191906000526020600020905b815481529060010190602001808311610c6957829003601f168201915b505050505081565b6000610c99826115ec565b90508073ffffffffffffffffffffffffffffffffffffffff168373ffffffffffffffffffffffffffffffffffffffff161415610d0a576040517f08c379a0000000000000000000000000000000000000000000000000000000008152600401610d01906148a4565b60405180910390fd5b8073ffffffffffffffffffffffffffffffffffffffff16610d296121e4565b73ffffffffffffffffffffffffffffffffffffffff161480610d585750610d5781610d526121e4565b611e37565b5b610d97576040517f08c379a0000000000000000000000000000000000000000000000000000000008152600401610d8e90614936565b60405180910390fd5b610da18383612258565b505050565b6000600880549050905090565b60146020528060005260406000206000915054906101000a900460ff1681565b600f5481565b610dea610de46121e4565b82612311565b610e29576040517f08c379a0000000000000000000000000000000000000000000000000000000008152600401610e20906149c8565b60405180910390fd5b610e348383836123ef565b505050565b601360009054906101000a900460ff16610e88576040517f08c379a0000000000000000000000000000000000000000000000000000000008152600401610e7f90614a34565b60405180910390fd5b610e90611b9a565b73ffffffffffffffffffffffffffffffffffffffff163373ffffffffffffffffffffffffffffffffffffffff1614610f135780600d54610ed09190614a83565b341015610f12576040517f08c379a0000000000000000000000000000000000000000000000000000000008152600401610f0990614b29565b60405180910390fd5b5b610f1e816000612656565b50565b600c5481565b601360019054906101000a900460ff16610f76576040517f08c379a0000000000000000000000000000000000000000000000000000000008152600401610f6d90614a34565b60405180910390fd5b610f7e611b9a565b73ffffffffffffffffffffffffffffffffffffffff163373ffffffffffffffffffffffffffffffffffffffff16146110015780600c54610fbe9190614a83565b341015611000576040517f08c379a0000000000000000000000000000000000000000000000000000000008152600401610ff790614b29565b60405180910390fd5b5b61100c816001612656565b50565b600061101a8361169e565b821061105b576040517f08c379a000000000000000000000000000000000000000000000000000000000815260040161105290614bbb565b60405180910390fd5b600660008473ffffffffffffffffffffffffffffffffffffffff1673ffffffffffffffffffffffffffffffffffffffff168152602001908152602001600020600083815260200190815260200160002054905092915050565b6110bc6121e4565b73ffffffffffffffffffffffffffffffffffffffff166110da611b9a565b73ffffffffffffffffffffffffffffffffffffffff1614611130576040517f08c379a00000000000000000000000000000000000000000000000000000000081526004016111279061471f565b60405180910390fd5b80600d8190555050565b6111426121e4565b73ffffffffffffffffffffffffffffffffffffffff16611160611b9a565b73ffffffffffffffffffffffffffffffffffffffff16146111b6576040517f08c379a00000000000000000000000000000000000000000000000000000000081526004016111ad9061471f565b60405180910390fd5b60006111c0611b9a565b90508073ffffffffffffffffffffffffffffffffffffffff166108fc479081150290604051600060405180830381858888f19350505050158015611208573d6000803e3d6000fd5b5050565b61122783838360405180602001604052806000815250611d11565b505050565b61123d6112376121e4565b82612311565b61127c576040517f08c379a000000000000000000000000000000000000000000000000000000000815260040161127390614c4d565b60405180910390fd5b6112858161299b565b50565b606060006112958361169e565b905060008167ffffffffffffffff8111156112b3576112b2614089565b5b6040519080825280602002602001820160405280156112e15781602001602082028036833780820191505090505b50905060005b8281101561132b576112f9858261100f565b82828151811061130c5761130b614c6d565b5b602002602001018181525050808061132390614c9c565b9150506112e7565b508092505050919050565b6000611340610da6565b8210611381576040517f08c379a000000000000000000000000000000000000000000000000000000000815260040161137890614d57565b60405180910390fd5b6008828154811061139557611394614c6d565b5b90600052602060002001549050919050565b60011515601460003373ffffffffffffffffffffffffffffffffffffffff1673ffffffffffffffffffffffffffffffffffffffff16815260200190815260200160002060009054906101000a900460ff1615151461143a576040517f08c379a000000000000000000000000000000000000000000000000000000000815260040161143190614de9565b60405180910390fd5b6000601460003373ffffffffffffffffffffffffffffffffffffffff1673ffffffffffffffffffffffffffffffffffffffff16815260200190815260200160002060006101000a81548160ff021916908315150217905550600061149c610da6565b9050601060009054906101000a900460ff16156114b857600080fd5b600e546001826114c89190614e09565b11156114d357600080fd5b60006001826012546114e59190614e09565b6114ef9190614e09565b90506114fb33826129a7565b61158f816011805461150c9061476e565b80601f01602080910402602001604051908101604052809291908181526020018280546115389061476e565b80156115855780601f1061155a57610100808354040283529160200191611585565b820191906000526020600020905b81548152906001019060200180831161156857829003601f168201915b50505050506129c5565b6000813373ffffffffffffffffffffffffffffffffffffffff167fb4f4b5792584abad483262314f4a50d2ff0134d77eca5652bf30873f3846015160405160405180910390a45050565b601060009054906101000a900460ff1681565b6000806002600084815260200190815260200160002060009054906101000a900473ffffffffffffffffffffffffffffffffffffffff169050600073ffffffffffffffffffffffffffffffffffffffff168173ffffffffffffffffffffffffffffffffffffffff161415611695576040517f08c379a000000000000000000000000000000000000000000000000000000000815260040161168c90614ed1565b60405180910390fd5b80915050919050565b60008073ffffffffffffffffffffffffffffffffffffffff168273ffffffffffffffffffffffffffffffffffffffff16141561170f576040517f08c379a000000000000000000000000000000000000000000000000000000000815260040161170690614f63565b60405180910390fd5b600360008373ffffffffffffffffffffffffffffffffffffffff1673ffffffffffffffffffffffffffffffffffffffff168152602001908152602001600020549050919050565b61175e6121e4565b73ffffffffffffffffffffffffffffffffffffffff1661177c611b9a565b73ffffffffffffffffffffffffffffffffffffffff16146117d2576040517f08c379a00000000000000000000000000000000000000000000000000000000081526004016117c99061471f565b60405180910390fd5b6117dc6000612a39565b565b6117e66121e4565b73ffffffffffffffffffffffffffffffffffffffff16611804611b9a565b73ffffffffffffffffffffffffffffffffffffffff161461185a576040517f08c379a00000000000000000000000000000000000000000000000000000000081526004016118519061471f565b60405180910390fd5b805182511461189e576040517f08c379a000000000000000000000000000000000000000000000000000000000815260040161189590614ff5565b60405180910390fd5b60005b82518110156119655760008382815181106118bf576118be614c6d565b5b6020026020010151905060008383815181106118de576118dd614c6d565b5b6020026020010151905060116040516020016118fa91906150b4565b6040516020818303038152906040528051906020012061191983611d86565b60405160200161192991906150fc565b6040516020818303038152906040528051906020012014156119505761194f82826129c5565b5b5050808061195d90614c9c565b9150506118a1565b505050565b6119726121e4565b73ffffffffffffffffffffffffffffffffffffffff16611990611b9a565b73ffffffffffffffffffffffffffffffffffffffff16146119e6576040517f08c379a00000000000000000000000000000000000000000000000000000000081526004016119dd9061471f565b60405180910390fd5b80600f8190555050565b601360009054906101000a900460ff1681565b611a0b6121e4565b73ffffffffffffffffffffffffffffffffffffffff16611a29611b9a565b73ffffffffffffffffffffffffffffffffffffffff1614611a7f576040517f08c379a0000000000000000000000000000000000000000000000000000000008152600401611a769061471f565b60405180910390fd5b80600c8190555050565b611a916121e4565b73ffffffffffffffffffffffffffffffffffffffff16611aaf611b9a565b73ffffffffffffffffffffffffffffffffffffffff1614611b05576040517f08c379a0000000000000000000000000000000000000000000000000000000008152600401611afc9061471f565b60405180910390fd5b60005b8151811015611b9657600060146000848481518110611b2a57611b29614c6d565b5b602002602001015173ffffffffffffffffffffffffffffffffffffffff1673ffffffffffffffffffffffffffffffffffffffff16815260200190815260200160002060006101000a81548160ff0219169083151502179055508080611b8e90614c9c565b915050611b08565b5050565b6000600b60009054906101000a900473ffffffffffffffffffffffffffffffffffffffff16905090565b606060018054611bd39061476e565b80601f0160208091040260200160405190810160405280929190818152602001828054611bff9061476e565b8015611c4c5780601f10611c2157610100808354040283529160200191611c4c565b820191906000526020600020905b815481529060010190602001808311611c2f57829003601f168201915b5050505050905090565b600d5481565b611c646121e4565b73ffffffffffffffffffffffffffffffffffffffff16611c82611b9a565b73ffffffffffffffffffffffffffffffffffffffff1614611cd8576040517f08c379a0000000000000000000000000000000000000000000000000000000008152600401611ccf9061471f565b60405180910390fd5b80601360016101000a81548160ff02191690831515021790555050565b611d07611d006121e4565b8383612aff565b5050565b60125481565b611d22611d1c6121e4565b83612311565b611d61576040517f08c379a0000000000000000000000000000000000000000000000000000000008152600401611d58906149c8565b60405180910390fd5b611d6d84848484612c6c565b50505050565b601360019054906101000a900460ff1681565b6060611d9182612cc8565b9050919050565b611da06121e4565b73ffffffffffffffffffffffffffffffffffffffff16611dbe611b9a565b73ffffffffffffffffffffffffffffffffffffffff1614611e14576040517f08c379a0000000000000000000000000000000000000000000000000000000008152600401611e0b9061471f565b60405180910390fd5b80601360006101000a81548160ff02191690831515021790555050565b600e5481565b6000600560008473ffffffffffffffffffffffffffffffffffffffff1673ffffffffffffffffffffffffffffffffffffffff16815260200190815260200160002060008373ffffffffffffffffffffffffffffffffffffffff1673ffffffffffffffffffffffffffffffffffffffff16815260200190815260200160002060009054906101000a900460ff16905092915050565b611ed36121e4565b73ffffffffffffffffffffffffffffffffffffffff16611ef1611b9a565b73ffffffffffffffffffffffffffffffffffffffff1614611f47576040517f08c379a0000000000000000000000000000000000000000000000000000000008152600401611f3e9061471f565b60405180910390fd5b8060119080519060200190611f5d929190613b09565b5050565b611f696121e4565b73ffffffffffffffffffffffffffffffffffffffff16611f87611b9a565b73ffffffffffffffffffffffffffffffffffffffff1614611fdd576040517f08c379a0000000000000000000000000000000000000000000000000000000008152600401611fd49061471f565b60405180910390fd5b600073ffffffffffffffffffffffffffffffffffffffff168173ffffffffffffffffffffffffffffffffffffffff16141561204d576040517f08c379a000000000000000000000000000000000000000000000000000000000815260040161204490615185565b60405180910390fd5b61205681612a39565b50565b6120616121e4565b73ffffffffffffffffffffffffffffffffffffffff1661207f611b9a565b73ffffffffffffffffffffffffffffffffffffffff16146120d5576040517f08c379a00000000000000000000000000000000000000000000000000000000081526004016120cc9061471f565b60405180910390fd5b60005b8151811015612166576001601460008484815181106120fa576120f9614c6d565b5b602002602001015173ffffffffffffffffffffffffffffffffffffffff1673ffffffffffffffffffffffffffffffffffffffff16815260200190815260200160002060006101000a81548160ff021916908315150217905550808061215e90614c9c565b9150506120d8565b5050565b60007f780e9d63000000000000000000000000000000000000000000000000000000007bffffffffffffffffffffffffffffffffffffffffffffffffffffffff1916827bffffffffffffffffffffffffffffffffffffffffffffffffffffffff191614806121dd57506121dc82612e1a565b5b9050919050565b600033905090565b60008073ffffffffffffffffffffffffffffffffffffffff166002600084815260200190815260200160002060009054906101000a900473ffffffffffffffffffffffffffffffffffffffff1673ffffffffffffffffffffffffffffffffffffffff1614159050919050565b816004600083815260200190815260200160002060006101000a81548173ffffffffffffffffffffffffffffffffffffffff021916908373ffffffffffffffffffffffffffffffffffffffff160217905550808273ffffffffffffffffffffffffffffffffffffffff166122cb836115ec565b73ffffffffffffffffffffffffffffffffffffffff167f8c5be1e5ebec7d5bd14f71427d1e84f3dd0314c0f7b2291e5b200ac8c7c3b92560405160405180910390a45050565b600061231c826121ec565b61235b576040517f08c379a000000000000000000000000000000000000000000000000000000000815260040161235290615217565b60405180910390fd5b6000612366836115ec565b90508073ffffffffffffffffffffffffffffffffffffffff168473ffffffffffffffffffffffffffffffffffffffff1614806123d557508373ffffffffffffffffffffffffffffffffffffffff166123bd84610b7b565b73ffffffffffffffffffffffffffffffffffffffff16145b806123e657506123e58185611e37565b5b91505092915050565b8273ffffffffffffffffffffffffffffffffffffffff1661240f826115ec565b73ffffffffffffffffffffffffffffffffffffffff1614612465576040517f08c379a000000000000000000000000000000000000000000000000000000000815260040161245c906152a9565b60405180910390fd5b600073ffffffffffffffffffffffffffffffffffffffff168273ffffffffffffffffffffffffffffffffffffffff1614156124d5576040517f08c379a00000000000000000000000000000000000000000000000000000000081526004016124cc9061533b565b60405180910390fd5b6124e0838383612efc565b6124eb600082612258565b6001600360008573ffffffffffffffffffffffffffffffffffffffff1673ffffffffffffffffffffffffffffffffffffffff168152602001908152602001600020600082825461253b919061535b565b925050819055506001600360008473ffffffffffffffffffffffffffffffffffffffff1673ffffffffffffffffffffffffffffffffffffffff16815260200190815260200160002060008282546125929190614e09565b92505081905550816002600083815260200190815260200160002060006101000a81548173ffffffffffffffffffffffffffffffffffffffff021916908373ffffffffffffffffffffffffffffffffffffffff160217905550808273ffffffffffffffffffffffffffffffffffffffff168473ffffffffffffffffffffffffffffffffffffffff167fddf252ad1be2c89b69c2b068fc378daa952ba7f163c4a11628f55a4df523b3ef60405160405180910390a4612651838383612f0c565b505050565b6000612660610da6565b9050601060009054906101000a900460ff16156126b2576040517f08c379a00000000000000000000000000000000000000000000000000000000081526004016126a9906153db565b60405180910390fd5b600083116126f5576040517f08c379a00000000000000000000000000000000000000000000000000000000081526004016126ec90615447565b60405180910390fd5b6126fd611b9a565b73ffffffffffffffffffffffffffffffffffffffff163373ffffffffffffffffffffffffffffffffffffffff1614806127385750600f548311155b612777576040517f08c379a000000000000000000000000000000000000000000000000000000000815260040161276e906154d9565b60405180910390fd5b600e5483826127869190614e09565b11156127c7576040517f08c379a00000000000000000000000000000000000000000000000000000000081526004016127be9061556b565b60405180910390fd5b6000816012546127d79190614e09565b90506000600190505b848111612994576127fc3382846127f79190614e09565b6129a7565b61289b818361280b9190614e09565b601180546128189061476e565b80601f01602080910402602001604051908101604052809291908181526020018280546128449061476e565b80156128915780601f1061286657610100808354040283529160200191612891565b820191906000526020600020905b81548152906001019060200180831161287457829003601f168201915b50505050506129c5565b6128a3611b9a565b73ffffffffffffffffffffffffffffffffffffffff163373ffffffffffffffffffffffffffffffffffffffff161461292d578360ff1681836128e59190614e09565b3373ffffffffffffffffffffffffffffffffffffffff167f73d22edf4a85f7859e559762af99458a06810165cefecc62169812d1f6376a2460405160405180910390a4612981565b8360ff16818361293d9190614e09565b3373ffffffffffffffffffffffffffffffffffffffff167f7a1e1e849e7633f1c42868f8bcc77363bc78abd1491f96bac43e252dad41ce4c60405160405180910390a45b808061298c90614c9c565b9150506127e0565b5050505050565b6129a481612f11565b50565b6129c1828260405180602001604052806000815250612f64565b5050565b6129ce826121ec565b612a0d576040517f08c379a0000000000000000000000000000000000000000000000000000000008152600401612a04906155fd565b60405180910390fd5b80600a60008481526020019081526020016000209080519060200190612a34929190613b09565b505050565b6000600b60009054906101000a900473ffffffffffffffffffffffffffffffffffffffff16905081600b60006101000a81548173ffffffffffffffffffffffffffffffffffffffff021916908373ffffffffffffffffffffffffffffffffffffffff1602179055508173ffffffffffffffffffffffffffffffffffffffff168173ffffffffffffffffffffffffffffffffffffffff167f8be0079c531659141344cd1fd0a4f28419497f9722a3daafe3b4186f6b6457e060405160405180910390a35050565b8173ffffffffffffffffffffffffffffffffffffffff168373ffffffffffffffffffffffffffffffffffffffff161415612b6e576040517f08c379a0000000000000000000000000000000000000000000000000000000008152600401612b6590615669565b60405180910390fd5b80600560008573ffffffffffffffffffffffffffffffffffffffff1673ffffffffffffffffffffffffffffffffffffffff16815260200190815260200160002060008473ffffffffffffffffffffffffffffffffffffffff1673ffffffffffffffffffffffffffffffffffffffff16815260200190815260200160002060006101000a81548160ff0219169083151502179055508173ffffffffffffffffffffffffffffffffffffffff168373ffffffffffffffffffffffffffffffffffffffff167f17307eab39ab6107e8899845ad3d59bd9653f200f220920489ca2b5937696c3183604051612c5f9190613ca0565b60405180910390a3505050565b612c778484846123ef565b612c8384848484612fbf565b612cc2576040517f08c379a0000000000000000000000000000000000000000000000000000000008152600401612cb9906156fb565b60405180910390fd5b50505050565b6060612cd3826121ec565b612d12576040517f08c379a0000000000000000000000000000000000000000000000000000000008152600401612d099061578d565b60405180910390fd5b6000600a60008481526020019081526020016000208054612d329061476e565b80601f0160208091040260200160405190810160405280929190818152602001828054612d5e9061476e565b8015612dab5780601f10612d8057610100808354040283529160200191612dab565b820191906000526020600020905b815481529060010190602001808311612d8e57829003601f168201915b505050505090506000612dbc613147565b9050600081511415612dd2578192505050612e15565b600082511115612e07578082604051602001612def9291906157ad565b60405160208183030381529060405292505050612e15565b612e108461315e565b925050505b919050565b60007f80ac58cd000000000000000000000000000000000000000000000000000000007bffffffffffffffffffffffffffffffffffffffffffffffffffffffff1916827bffffffffffffffffffffffffffffffffffffffffffffffffffffffff19161480612ee557507f5b5e139f000000000000000000000000000000000000000000000000000000007bffffffffffffffffffffffffffffffffffffffffffffffffffffffff1916827bffffffffffffffffffffffffffffffffffffffffffffffffffffffff1916145b80612ef55750612ef482613205565b5b9050919050565b612f0783838361326f565b505050565b505050565b612f1a81613383565b6000600a60008381526020019081526020016000208054612f3a9061476e565b905014612f6157600a60008281526020019081526020016000206000612f609190613b8f565b5b50565b612f6e83836134a0565b612f7b6000848484612fbf565b612fba576040517f08c379a0000000000000000000000000000000000000000000000000000000008152600401612fb1906156fb565b60405180910390fd5b505050565b6000612fe08473ffffffffffffffffffffffffffffffffffffffff1661367a565b1561313a578373ffffffffffffffffffffffffffffffffffffffff1663150b7a026130096121e4565b8786866040518563ffffffff1660e01b815260040161302b9493929190615826565b6020604051808303816000875af192505050801561306757506040513d601f19601f820116820180604052508101906130649190615887565b60015b6130ea573d8060008114613097576040519150601f19603f3d011682016040523d82523d6000602084013e61309c565b606091505b506000815114156130e2576040517f08c379a00000000000000000000000000000000000000000000000000000000081526004016130d9906156fb565b60405180910390fd5b805181602001fd5b63150b7a0260e01b7bffffffffffffffffffffffffffffffffffffffffffffffffffffffff1916817bffffffffffffffffffffffffffffffffffffffffffffffffffffffff19161491505061313f565b600190505b949350505050565b606060405180602001604052806000815250905090565b6060613169826121ec565b6131a8576040517f08c379a000000000000000000000000000000000000000000000000000000000815260040161319f90615926565b60405180910390fd5b60006131b2613147565b905060008151116131d257604051806020016040528060008152506131fd565b806131dc8461369d565b6040516020016131ed9291906157ad565b6040516020818303038152906040525b915050919050565b60007f01ffc9a7000000000000000000000000000000000000000000000000000000007bffffffffffffffffffffffffffffffffffffffffffffffffffffffff1916827bffffffffffffffffffffffffffffffffffffffffffffffffffffffff1916149050919050565b61327a8383836137fe565b600073ffffffffffffffffffffffffffffffffffffffff168373ffffffffffffffffffffffffffffffffffffffff1614156132bd576132b881613803565b6132fc565b8173ffffffffffffffffffffffffffffffffffffffff168373ffffffffffffffffffffffffffffffffffffffff16146132fb576132fa838261384c565b5b5b600073ffffffffffffffffffffffffffffffffffffffff168273ffffffffffffffffffffffffffffffffffffffff16141561333f5761333a816139b9565b61337e565b8273ffffffffffffffffffffffffffffffffffffffff168273ffffffffffffffffffffffffffffffffffffffff161461337d5761337c8282613a8a565b5b5b505050565b600061338e826115ec565b905061339c81600084612efc565b6133a7600083612258565b6001600360008373ffffffffffffffffffffffffffffffffffffffff1673ffffffffffffffffffffffffffffffffffffffff16815260200190815260200160002060008282546133f7919061535b565b925050819055506002600083815260200190815260200160002060006101000a81549073ffffffffffffffffffffffffffffffffffffffff021916905581600073ffffffffffffffffffffffffffffffffffffffff168273ffffffffffffffffffffffffffffffffffffffff167fddf252ad1be2c89b69c2b068fc378daa952ba7f163c4a11628f55a4df523b3ef60405160405180910390a461349c81600084612f0c565b5050565b600073ffffffffffffffffffffffffffffffffffffffff168273ffffffffffffffffffffffffffffffffffffffff161415613510576040517f08c379a000000000000000000000000000000000000000000000000000000000815260040161350790615992565b60405180910390fd5b613519816121ec565b15613559576040517f08c379a0000000000000000000000000000000000000000000000000000000008152600401613550906159fe565b60405180910390fd5b61356560008383612efc565b6001600360008473ffffffffffffffffffffffffffffffffffffffff1673ffffffffffffffffffffffffffffffffffffffff16815260200190815260200160002060008282546135b59190614e09565b92505081905550816002600083815260200190815260200160002060006101000a81548173ffffffffffffffffffffffffffffffffffffffff021916908373ffffffffffffffffffffffffffffffffffffffff160217905550808273ffffffffffffffffffffffffffffffffffffffff16600073ffffffffffffffffffffffffffffffffffffffff167fddf252ad1be2c89b69c2b068fc378daa952ba7f163c4a11628f55a4df523b3ef60405160405180910390a461367660008383612f0c565b5050565b6000808273ffffffffffffffffffffffffffffffffffffffff163b119050919050565b606060008214156136e5576040518060400160405280600181526020017f300000000000000000000000000000000000000000000000000000000000000081525090506137f9565b600082905060005b6000821461371757808061370090614c9c565b915050600a826137109190615a4d565b91506136ed565b60008167ffffffffffffffff81111561373357613732614089565b5b6040519080825280601f01601f1916602001820160405280156137655781602001600182028036833780820191505090505b5090505b600085146137f25760018261377e919061535b565b9150600a8561378d9190615a7e565b60306137999190614e09565b60f81b8183815181106137af576137ae614c6d565b5b60200101907effffffffffffffffffffffffffffffffffffffffffffffffffffffffffffff1916908160001a905350600a856137eb9190615a4d565b9450613769565b8093505050505b919050565b505050565b6008805490506009600083815260200190815260200160002081905550600881908060018154018082558091505060019003906000526020600020016000909190919091505550565b600060016138598461169e565b613863919061535b565b9050600060076000848152602001908152602001600020549050818114613948576000600660008673ffffffffffffffffffffffffffffffffffffffff1673ffffffffffffffffffffffffffffffffffffffff168152602001908152602001600020600084815260200190815260200160002054905080600660008773ffffffffffffffffffffffffffffffffffffffff1673ffffffffffffffffffffffffffffffffffffffff168152602001908152602001600020600084815260200190815260200160002081905550816007600083815260200190815260200160002081905550505b6007600084815260200190815260200160002060009055600660008573ffffffffffffffffffffffffffffffffffffffff1673ffffffffffffffffffffffffffffffffffffffff16815260200190815260200160002060008381526020019081526020016000206000905550505050565b600060016008805490506139cd919061535b565b90506000600960008481526020019081526020016000205490506000600883815481106139fd576139fc614c6d565b5b906000526020600020015490508060088381548110613a1f57613a1e614c6d565b5b906000526020600020018190555081600960008381526020019081526020016000208190555060096000858152602001908152602001600020600090556008805480613a6e57613a6d615aaf565b5b6001900381819060005260206000200160009055905550505050565b6000613a958361169e565b905081600660008573ffffffffffffffffffffffffffffffffffffffff1673ffffffffffffffffffffffffffffffffffffffff168152602001908152602001600020600083815260200190815260200160002081905550806007600084815260200190815260200160002081905550505050565b828054613b159061476e565b90600052602060002090601f016020900481019282613b375760008555613b7e565b82601f10613b5057805160ff1916838001178555613b7e565b82800160010185558215613b7e579182015b82811115613b7d578251825591602001919060010190613b62565b5b509050613b8b9190613bcf565b5090565b508054613b9b9061476e565b6000825580601f10613bad5750613bcc565b601f016020900490600052602060002090810190613bcb9190613bcf565b5b50565b5b80821115613be8576000816000905550600101613bd0565b5090565b6000604051905090565b600080fd5b600080fd5b60007fffffffff0000000000000000000000000000000000000000000000000000000082169050919050565b613c3581613c00565b8114613c4057600080fd5b50565b600081359050613c5281613c2c565b92915050565b600060208284031215613c6e57613c6d613bf6565b5b6000613c7c84828501613c43565b91505092915050565b60008115159050919050565b613c9a81613c85565b82525050565b6000602082019050613cb56000830184613c91565b92915050565b613cc481613c85565b8114613ccf57600080fd5b50565b600081359050613ce181613cbb565b92915050565b600060208284031215613cfd57613cfc613bf6565b5b6000613d0b84828501613cd2565b91505092915050565b600081519050919050565b600082825260208201905092915050565b60005b83811015613d4e578082015181840152602081019050613d33565b83811115613d5d576000848401525b50505050565b6000601f19601f8301169050919050565b6000613d7f82613d14565b613d898185613d1f565b9350613d99818560208601613d30565b613da281613d63565b840191505092915050565b60006020820190508181036000830152613dc78184613d74565b905092915050565b6000819050919050565b613de281613dcf565b8114613ded57600080fd5b50565b600081359050613dff81613dd9565b92915050565b600060208284031215613e1b57613e1a613bf6565b5b6000613e2984828501613df0565b91505092915050565b600073ffffffffffffffffffffffffffffffffffffffff82169050919050565b6000613e5d82613e32565b9050919050565b613e6d81613e52565b82525050565b6000602082019050613e886000830184613e64565b92915050565b613e9781613e52565b8114613ea257600080fd5b50565b600081359050613eb481613e8e565b92915050565b60008060408385031215613ed157613ed0613bf6565b5b6000613edf85828601613ea5565b9250506020613ef085828601613df0565b9150509250929050565b613f0381613dcf565b82525050565b6000602082019050613f1e6000830184613efa565b92915050565b600060208284031215613f3a57613f39613bf6565b5b6000613f4884828501613ea5565b91505092915050565b600080600060608486031215613f6a57613f69613bf6565b5b6000613f7886828701613ea5565b9350506020613f8986828701613ea5565b9250506040613f9a86828701613df0565b9150509250925092565b600081519050919050565b600082825260208201905092915050565b6000819050602082019050919050565b613fd981613dcf565b82525050565b6000613feb8383613fd0565b60208301905092915050565b6000602082019050919050565b600061400f82613fa4565b6140198185613faf565b935061402483613fc0565b8060005b8381101561405557815161403c8882613fdf565b975061404783613ff7565b925050600181019050614028565b5085935050505092915050565b6000602082019050818103600083015261407c8184614004565b905092915050565b600080fd5b7f4e487b7100000000000000000000000000000000000000000000000000000000600052604160045260246000fd5b6140c182613d63565b810181811067ffffffffffffffff821117156140e0576140df614089565b5b80604052505050565b60006140f3613bec565b90506140ff82826140b8565b919050565b600067ffffffffffffffff82111561411f5761411e614089565b5b602082029050602081019050919050565b600080fd5b600061414861414384614104565b6140e9565b9050808382526020820190506020840283018581111561416b5761416a614130565b5b835b8181101561419457806141808882613df0565b84526020840193505060208101905061416d565b5050509392505050565b600082601f8301126141b3576141b2614084565b5b81356141c3848260208601614135565b91505092915050565b600067ffffffffffffffff8211156141e7576141e6614089565b5b602082029050602081019050919050565b600080fd5b600067ffffffffffffffff82111561421857614217614089565b5b61422182613d63565b9050602081019050919050565b82818337600083830152505050565b600061425061424b846141fd565b6140e9565b90508281526020810184848401111561426c5761426b6141f8565b5b61427784828561422e565b509392505050565b600082601f83011261429457614293614084565b5b81356142a484826020860161423d565b91505092915050565b60006142c06142bb846141cc565b6140e9565b905080838252602082019050602084028301858111156142e3576142e2614130565b5b835b8181101561432a57803567ffffffffffffffff81111561430857614307614084565b5b808601614315898261427f565b855260208501945050506020810190506142e5565b5050509392505050565b600082601f83011261434957614348614084565b5b81356143598482602086016142ad565b91505092915050565b6000806040838503121561437957614378613bf6565b5b600083013567ffffffffffffffff81111561439757614396613bfb565b5b6143a38582860161419e565b925050602083013567ffffffffffffffff8111156143c4576143c3613bfb565b5b6143d085828601614334565b9150509250929050565b600067ffffffffffffffff8211156143f5576143f4614089565b5b602082029050602081019050919050565b6000614419614414846143da565b6140e9565b9050808382526020820190506020840283018581111561443c5761443b614130565b5b835b8181101561446557806144518882613ea5565b84526020840193505060208101905061443e565b5050509392505050565b600082601f83011261448457614483614084565b5b8135614494848260208601614406565b91505092915050565b6000602082840312156144b3576144b2613bf6565b5b600082013567ffffffffffffffff8111156144d1576144d0613bfb565b5b6144dd8482850161446f565b91505092915050565b600080604083850312156144fd576144fc613bf6565b5b600061450b85828601613ea5565b925050602061451c85828601613cd2565b9150509250929050565b600067ffffffffffffffff82111561454157614540614089565b5b61454a82613d63565b9050602081019050919050565b600061456a61456584614526565b6140e9565b905082815260208101848484011115614586576145856141f8565b5b61459184828561422e565b509392505050565b600082601f8301126145ae576145ad614084565b5b81356145be848260208601614557565b91505092915050565b600080600080608085870312156145e1576145e0613bf6565b5b60006145ef87828801613ea5565b945050602061460087828801613ea5565b935050604061461187828801613df0565b925050606085013567ffffffffffffffff81111561463257614631613bfb565b5b61463e87828801614599565b91505092959194509250565b6000806040838503121561466157614660613bf6565b5b600061466f85828601613ea5565b925050602061468085828601613ea5565b9150509250929050565b6000602082840312156146a05761469f613bf6565b5b600082013567ffffffffffffffff8111156146be576146bd613bfb565b5b6146ca8482850161427f565b91505092915050565b7f4f776e61626c653a2063616c6c6572206973206e6f7420746865206f776e6572600082015250565b6000614709602083613d1f565b9150614714826146d3565b602082019050919050565b60006020820190508181036000830152614738816146fc565b9050919050565b7f4e487b7100000000000000000000000000000000000000000000000000000000600052602260045260246000fd5b6000600282049050600182168061478657607f821691505b6020821081141561479a5761479961473f565b5b50919050565b7f4552433732313a20617070726f76656420717565727920666f72206e6f6e657860008201527f697374656e7420746f6b656e0000000000000000000000000000000000000000602082015250565b60006147fc602c83613d1f565b9150614807826147a0565b604082019050919050565b6000602082019050818103600083015261482b816147ef565b9050919050565b7f4552433732313a20617070726f76616c20746f2063757272656e74206f776e6560008201527f7200000000000000000000000000000000000000000000000000000000000000602082015250565b600061488e602183613d1f565b915061489982614832565b604082019050919050565b600060208201905081810360008301526148bd81614881565b9050919050565b7f4552433732313a20617070726f76652063616c6c6572206973206e6f74206f7760008201527f6e6572206e6f7220617070726f76656420666f7220616c6c0000000000000000602082015250565b6000614920603883613d1f565b915061492b826148c4565b604082019050919050565b6000602082019050818103600083015261494f81614913565b9050919050565b7f4552433732313a207472616e736665722063616c6c6572206973206e6f74206f60008201527f776e6572206e6f7220617070726f766564000000000000000000000000000000602082015250565b60006149b2603183613d1f565b91506149bd82614956565b604082019050919050565b600060208201905081810360008301526149e1816149a5565b9050919050565b7f53616c65206e6f7420656e61626c656420796574000000000000000000000000600082015250565b6000614a1e601483613d1f565b9150614a29826149e8565b602082019050919050565b60006020820190508181036000830152614a4d81614a11565b9050919050565b7f4e487b7100000000000000000000000000000000000000000000000000000000600052601160045260246000fd5b6000614a8e82613dcf565b9150614a9983613dcf565b9250817fffffffffffffffffffffffffffffffffffffffffffffffffffffffffffffffff0483118215151615614ad257614ad1614a54565b5b828202905092915050565b7f4e65656420617070726f70726961746520616d6f756e74206f66206574680000600082015250565b6000614b13601e83613d1f565b9150614b1e82614add565b602082019050919050565b60006020820190508181036000830152614b4281614b06565b9050919050565b7f455243373231456e756d657261626c653a206f776e657220696e646578206f7560008201527f74206f6620626f756e6473000000000000000000000000000000000000000000602082015250565b6000614ba5602b83613d1f565b9150614bb082614b49565b604082019050919050565b60006020820190508181036000830152614bd481614b98565b9050919050565b7f4552433732314275726e61626c653a2063616c6c6572206973206e6f74206f7760008201527f6e6572206e6f7220617070726f76656400000000000000000000000000000000602082015250565b6000614c37603083613d1f565b9150614c4282614bdb565b604082019050919050565b60006020820190508181036000830152614c6681614c2a565b9050919050565b7f4e487b7100000000000000000000000000000000000000000000000000000000600052603260045260246000fd5b6000614ca782613dcf565b91507fffffffffffffffffffffffffffffffffffffffffffffffffffffffffffffffff821415614cda57614cd9614a54565b5b600182019050919050565b7f455243373231456e756d657261626c653a20676c6f62616c20696e646578206f60008201527f7574206f6620626f756e64730000000000000000000000000000000000000000602082015250565b6000614d41602c83613d1f565b9150614d4c82614ce5565b604082019050919050565b60006020820190508181036000830152614d7081614d34565b9050919050565b7f4f6e6c79206c69737465642075736572732063616e206d696e74206974206f6e60008201527f6365000000000000000000000000000000000000000000000000000000000000602082015250565b6000614dd3602283613d1f565b9150614dde82614d77565b604082019050919050565b60006020820190508181036000830152614e0281614dc6565b9050919050565b6000614e1482613dcf565b9150614e1f83613dcf565b9250827fffffffffffffffffffffffffffffffffffffffffffffffffffffffffffffffff03821115614e5457614e53614a54565b5b828201905092915050565b7f4552433732313a206f776e657220717565727920666f72206e6f6e657869737460008201527f656e7420746f6b656e0000000000000000000000000000000000000000000000602082015250565b6000614ebb602983613d1f565b9150614ec682614e5f565b604082019050919050565b60006020820190508181036000830152614eea81614eae565b9050919050565b7f4552433732313a2062616c616e636520717565727920666f7220746865207a6560008201527f726f206164647265737300000000000000000000000000000000000000000000602082015250565b6000614f4d602a83613d1f565b9150614f5882614ef1565b604082019050919050565b60006020820190508181036000830152614f7c81614f40565b9050919050565b7f506172616d6574657273204172726179732073686f756c64206861766520746860008201527f652073616d65206c656e67746800000000000000000000000000000000000000602082015250565b6000614fdf602d83613d1f565b9150614fea82614f83565b604082019050919050565b6000602082019050818103600083015261500e81614fd2565b9050919050565b600081905092915050565b60008190508160005260206000209050919050565b600081546150428161476e565b61504c8186615015565b945060018216600081146150675760018114615078576150ab565b60ff198316865281860193506150ab565b61508185615020565b60005b838110156150a357815481890152600182019150602081019050615084565b838801955050505b50505092915050565b60006150c08284615035565b915081905092915050565b60006150d682613d14565b6150e08185615015565b93506150f0818560208601613d30565b80840191505092915050565b600061510882846150cb565b915081905092915050565b7f4f776e61626c653a206e6577206f776e657220697320746865207a65726f206160008201527f6464726573730000000000000000000000000000000000000000000000000000602082015250565b600061516f602683613d1f565b915061517a82615113565b604082019050919050565b6000602082019050818103600083015261519e81615162565b9050919050565b7f4552433732313a206f70657261746f7220717565727920666f72206e6f6e657860008201527f697374656e7420746f6b656e0000000000000000000000000000000000000000602082015250565b6000615201602c83613d1f565b915061520c826151a5565b604082019050919050565b60006020820190508181036000830152615230816151f4565b9050919050565b7f4552433732313a207472616e736665722066726f6d20696e636f72726563742060008201527f6f776e6572000000000000000000000000000000000000000000000000000000602082015250565b6000615293602583613d1f565b915061529e82615237565b604082019050919050565b600060208201905081810360008301526152c281615286565b9050919050565b7f4552433732313a207472616e7366657220746f20746865207a65726f2061646460008201527f7265737300000000000000000000000000000000000000000000000000000000602082015250565b6000615325602483613d1f565b9150615330826152c9565b604082019050919050565b6000602082019050818103600083015261535481615318565b9050919050565b600061536682613dcf565b915061537183613dcf565b92508282101561538457615383614a54565b5b828203905092915050565b7f436f6e7472616374206d75737420626520756e70617573656400000000000000600082015250565b60006153c5601983613d1f565b91506153d08261538f565b602082019050919050565b600060208201905081810360008301526153f4816153b8565b9050919050565b7f4d696e7420616d6f756e74206d757374206265206d6f7265207468616e203000600082015250565b6000615431601f83613d1f565b915061543c826153fb565b602082019050919050565b6000602082019050818103600083015261546081615424565b9050919050565b7f4d696e7420616d6f756e74206d757374206265206c657373207468616e206f7260008201527f20657175616c20746f206d61784d696e74416d6f756e74000000000000000000602082015250565b60006154c3603783613d1f565b91506154ce82615467565b604082019050919050565b600060208201905081810360008301526154f2816154b6565b9050919050565b7f4d696e7420616d6f756e74206d757374206265206c657373207468616e206f7260008201527f20657175616c20746f206d6178537570706c7900000000000000000000000000602082015250565b6000615555603383613d1f565b9150615560826154f9565b604082019050919050565b6000602082019050818103600083015261558481615548565b9050919050565b7f45524337323155524953746f726167653a2055524920736574206f66206e6f6e60008201527f6578697374656e7420746f6b656e000000000000000000000000000000000000602082015250565b60006155e7602e83613d1f565b91506155f28261558b565b604082019050919050565b60006020820190508181036000830152615616816155da565b9050919050565b7f4552433732313a20617070726f766520746f2063616c6c657200000000000000600082015250565b6000615653601983613d1f565b915061565e8261561d565b602082019050919050565b6000602082019050818103600083015261568281615646565b9050919050565b7f4552433732313a207472616e7366657220746f206e6f6e20455243373231526560008201527f63656976657220696d706c656d656e7465720000000000000000000000000000602082015250565b60006156e5603283613d1f565b91506156f082615689565b604082019050919050565b60006020820190508181036000830152615714816156d8565b9050919050565b7f45524337323155524953746f726167653a2055524920717565727920666f722060008201527f6e6f6e6578697374656e7420746f6b656e000000000000000000000000000000602082015250565b6000615777603183613d1f565b91506157828261571b565b604082019050919050565b600060208201905081810360008301526157a68161576a565b9050919050565b60006157b982856150cb565b91506157c582846150cb565b91508190509392505050565b600081519050919050565b600082825260208201905092915050565b60006157f8826157d1565b61580281856157dc565b9350615812818560208601613d30565b61581b81613d63565b840191505092915050565b600060808201905061583b6000830187613e64565b6158486020830186613e64565b6158556040830185613efa565b818103606083015261586781846157ed565b905095945050505050565b60008151905061588181613c2c565b92915050565b60006020828403121561589d5761589c613bf6565b5b60006158ab84828501615872565b91505092915050565b7f4552433732314d657461646174613a2055524920717565727920666f72206e6f60008201527f6e6578697374656e7420746f6b656e0000000000000000000000000000000000602082015250565b6000615910602f83613d1f565b915061591b826158b4565b604082019050919050565b6000602082019050818103600083015261593f81615903565b9050919050565b7f4552433732313a206d696e7420746f20746865207a65726f2061646472657373600082015250565b600061597c602083613d1f565b915061598782615946565b602082019050919050565b600060208201905081810360008301526159ab8161596f565b9050919050565b7f4552433732313a20746f6b656e20616c7265616479206d696e74656400000000600082015250565b60006159e8601c83613d1f565b91506159f3826159b2565b602082019050919050565b60006020820190508181036000830152615a17816159db565b9050919050565b7f4e487b7100000000000000000000000000000000000000000000000000000000600052601260045260246000fd5b6000615a5882613dcf565b9150615a6383613dcf565b925082615a7357615a72615a1e565b5b828204905092915050565b6000615a8982613dcf565b9150615a9483613dcf565b925082615aa457615aa3615a1e565b5b828206905092915050565b7f4e487b7100000000000000000000000000000000000000000000000000000000600052603160045260246000fdfea264697066735822122068b7801f82329bf19dd69716639104c55625771dbd0b4f66eaeadeeac29f62a564736f6c634300080b0033",
  "immutableReferences": {},
  "source": "// SPDX-License-Identifier: MIT\npragma solidity >=0.4.22 <0.9.0;\n\nimport \"@openzeppelin/contracts/access/Ownable.sol\";\nimport \"@openzeppelin/contracts/token/ERC721/extensions/ERC721Enumerable.sol\";\nimport \"@openzeppelin/contracts/token/ERC721/extensions/ERC721URIStorage.sol\";\nimport \"@openzeppelin/contracts/token/ERC721/extensions/ERC721Burnable.sol\";\n\ncontract BoredDavid is\n    ERC721Enumerable,\n    ERC721URIStorage,\n    ERC721Burnable,\n    Ownable\n{\n    event AirdropClaimed(\n        address indexed user,\n        uint256 indexed tokenId,\n        uint8 indexed rarity\n    );\n    event OwnerMint(\n        address indexed user,\n        uint256 indexed tokenId,\n        uint8 indexed rarity\n    );\n    event UserMint(\n        address indexed user,\n        uint256 indexed tokenId,\n        uint8 indexed rarity\n    );\n\n    using Strings for uint256;\n\n    uint256 public rareCost;\n    uint256 public commonCost;\n    uint256 public maxSupply;\n    uint256 public maxMintAmount;\n    bool public paused = false;\n    string public notRevealedUri;\n    uint256 public startingTokenId;\n\n    bool public commonSaleEnabled;\n    bool public rareSaleEnabled;\n\n    mapping(address => bool) public eligibleForAirdrop;\n\n    constructor(\n        string memory _name,\n        string memory _symbol,\n        string memory _initNotRevealedUri,\n        uint256 _rareCost,\n        uint256 _commonCost,\n        uint256 _maxSupply,\n        uint256 _maxMintAmount,\n        uint256 _startingTokenId\n    ) ERC721(_name, _symbol) {\n        setNotRevealedURI(_initNotRevealedUri);\n        rareCost = _rareCost;\n        commonCost = _commonCost;\n        maxSupply = _maxSupply;\n        maxMintAmount = _maxMintAmount;\n        startingTokenId = _startingTokenId;\n    }\n\n    function claimAirdrop() external {\n        require(\n            eligibleForAirdrop[msg.sender] == true,\n            \"Only listed users can mint it once\"\n        );\n        eligibleForAirdrop[msg.sender] = false;\n        uint256 supply = totalSupply();\n        require(!paused);\n        require(supply + 1 <= maxSupply);\n\n        uint256 tokenId = startingTokenId + supply + 1;\n        _safeMint(msg.sender, tokenId);\n        _setTokenURI(tokenId, notRevealedUri);\n        emit AirdropClaimed(msg.sender, tokenId, 0);\n    }\n\n    function _mintToken(uint256 _mintAmount, uint8 rarity) internal {\n        uint256 supply = totalSupply();\n        require(!paused, \"Contract must be unpaused\");\n        require(_mintAmount > 0, \"Mint amount must be more than 0\");\n        require(msg.sender == owner() || _mintAmount <= maxMintAmount, \"Mint amount must be less than or equal to maxMintAmount\");\n        require(supply + _mintAmount <= maxSupply, \"Mint amount must be less than or equal to maxSupply\");\n\n        uint256 newTokenId = startingTokenId + supply;\n\n        for (uint256 i = 1; i <= _mintAmount; i++) {\n            _safeMint(msg.sender, newTokenId + i);\n            _setTokenURI(newTokenId + i, notRevealedUri);\n            if (msg.sender != owner()) {\n                emit UserMint(msg.sender, newTokenId + i, rarity);\n            } else {\n                emit OwnerMint(msg.sender, newTokenId + i, rarity);\n            }\n        }\n    }\n\n    function mintCommon(uint256 _mintAmount) external payable {\n        require(commonSaleEnabled, \"Sale not enabled yet\");\n        if (msg.sender != owner()) {\n            require(msg.value >= commonCost * _mintAmount, \"Need appropriate amount of eth\");\n        }\n        _mintToken(_mintAmount, 0);\n    }\n\n    function mintRare(uint256 _mintAmount) external payable {\n        require(rareSaleEnabled, \"Sale not enabled yet\");\n        if (msg.sender != owner()) {\n            require(msg.value >= rareCost * _mintAmount, \"Need appropriate amount of eth\");\n        }\n        _mintToken(_mintAmount, 1);\n    }\n\n    function walletOfOwner(address _owner)\n        external\n        view\n        returns (uint256[] memory)\n    {\n        uint256 ownerTokenCount = balanceOf(_owner);\n        uint256[] memory tokenIds = new uint256[](ownerTokenCount);\n        for (uint256 i = 0; i < ownerTokenCount; i++) {\n            tokenIds[i] = tokenOfOwnerByIndex(_owner, i);\n        }\n        return tokenIds;\n    }\n\n    // The following functions are overrides required by Solidity.\n    function _beforeTokenTransfer(\n        address from,\n        address to,\n        uint256 tokenId\n    ) internal override(ERC721, ERC721Enumerable) {\n        super._beforeTokenTransfer(from, to, tokenId);\n    }\n\n    function _burn(uint256 tokenId)\n        internal\n        override(ERC721, ERC721URIStorage)\n    {\n        super._burn(tokenId);\n    }\n\n    function tokenURI(uint256 tokenId)\n        public\n        view\n        override(ERC721, ERC721URIStorage)\n        returns (string memory)\n    {\n        return super.tokenURI(tokenId);\n    }\n\n    function supportsInterface(bytes4 interfaceId)\n        public\n        view\n        override(ERC721, ERC721Enumerable)\n        returns (bool)\n    {\n        return super.supportsInterface(interfaceId);\n    }\n\n    // Only owner can access these\n    function addAddressesToAirdrop(address[] memory _users) external onlyOwner {\n        for (uint256 i = 0; i < _users.length; i++) {\n            eligibleForAirdrop[_users[i]] = true;\n        }\n    }\n\n    function removeAddressesToAirdrop(address[] memory _users)\n        external\n        onlyOwner\n    {\n        for (uint256 i = 0; i < _users.length; i++) {\n            eligibleForAirdrop[_users[i]] = false;\n        }\n    }\n\n    //unveilNFTs\n\n    // One will accept a batch of nfts.\n\n    // Parameters: 2 arrays, one for token ids and one for token uris. You can update it more than once.\n\n    // We could do a mapping (unveiled -> true/false). If unveiled === true then you cannot update the tokenUri.\n\n    function unveilNFTs(uint256[] memory tokenIds, string[] memory uris)\n        external\n        onlyOwner\n    {\n        require(\n            tokenIds.length == uris.length,\n            \"Parameters Arrays should have the same length\"\n        );\n        for (uint256 i = 0; i < tokenIds.length; i++) {\n            uint256 tokenId = tokenIds[i];\n            string memory uri = uris[i];\n            if (\n                keccak256(abi.encodePacked(tokenURI(tokenId))) ==\n                keccak256(abi.encodePacked(notRevealedUri))\n            ) {\n                _setTokenURI(tokenId, uri);\n            }\n        }\n    }\n\n    function setRareCost(uint256 _newCost) external onlyOwner {\n        rareCost = _newCost;\n    }\n\n    function setCommonCost(uint256 _newCost) external onlyOwner {\n        commonCost = _newCost;\n    }\n\n    function setmaxMintAmount(uint256 _newmaxMintAmount) external onlyOwner {\n        maxMintAmount = _newmaxMintAmount;\n    }\n\n    function setNotRevealedURI(string memory _notRevealedURI) public onlyOwner {\n        notRevealedUri = _notRevealedURI;\n    }\n\n    function pause(bool _state) external onlyOwner {\n        paused = _state;\n    }\n\n    function enableCommonSale(bool _state) external onlyOwner {\n        commonSaleEnabled = _state;\n    }\n\n    function enableRareSale(bool _state) external onlyOwner {\n        rareSaleEnabled = _state;\n    }\n\n    function withdraw() external onlyOwner {\n        address _owner = owner();\n        payable(_owner).transfer(address(this).balance);\n    }\n}\n",
  "sourcePath": "/home/franz/snafu/bored-david-erc721/contracts/BoredDavid.sol",
  "compiler": {
    "name": "solc",
    "version": "0.8.11+commit.d7f03943.Emscripten.clang"
  },
  "schemaVersion": "3.4.7",
  "updatedAt": "2022-05-20T17:22:27.189Z",
  "networkType": "ethereum",
  "devdoc": {
    "kind": "dev",
    "methods": {
      "approve(address,uint256)": {
        "details": "See {IERC721-approve}."
      },
      "balanceOf(address)": {
        "details": "See {IERC721-balanceOf}."
      },
      "burn(uint256)": {
        "details": "Burns `tokenId`. See {ERC721-_burn}. Requirements: - The caller must own `tokenId` or be an approved operator."
      },
      "getApproved(uint256)": {
        "details": "See {IERC721-getApproved}."
      },
      "isApprovedForAll(address,address)": {
        "details": "See {IERC721-isApprovedForAll}."
      },
      "name()": {
        "details": "See {IERC721Metadata-name}."
      },
      "owner()": {
        "details": "Returns the address of the current owner."
      },
      "ownerOf(uint256)": {
        "details": "See {IERC721-ownerOf}."
      },
      "renounceOwnership()": {
        "details": "Leaves the contract without owner. It will not be possible to call `onlyOwner` functions anymore. Can only be called by the current owner. NOTE: Renouncing ownership will leave the contract without an owner, thereby removing any functionality that is only available to the owner."
      },
      "safeTransferFrom(address,address,uint256)": {
        "details": "See {IERC721-safeTransferFrom}."
      },
      "safeTransferFrom(address,address,uint256,bytes)": {
        "details": "See {IERC721-safeTransferFrom}."
      },
      "setApprovalForAll(address,bool)": {
        "details": "See {IERC721-setApprovalForAll}."
      },
      "symbol()": {
        "details": "See {IERC721Metadata-symbol}."
      },
      "tokenByIndex(uint256)": {
        "details": "See {IERC721Enumerable-tokenByIndex}."
      },
      "tokenOfOwnerByIndex(address,uint256)": {
        "details": "See {IERC721Enumerable-tokenOfOwnerByIndex}."
      },
      "totalSupply()": {
        "details": "See {IERC721Enumerable-totalSupply}."
      },
      "transferFrom(address,address,uint256)": {
        "details": "See {IERC721-transferFrom}."
      },
      "transferOwnership(address)": {
        "details": "Transfers ownership of the contract to a new account (`newOwner`). Can only be called by the current owner."
      }
    },
    "version": 1
  },
  "userdoc": {
    "kind": "user",
    "methods": {},
    "version": 1
  }
}