{
  "contractName": "BoredDavid",
  "abi": [
    {
      "inputs": [
        {
          "internalType": "string",
          "name": "_name",
          "type": "string"
        },
        {
          "internalType": "string",
          "name": "_symbol",
          "type": "string"
        },
        {
          "internalType": "string",
          "name": "_initNotRevealedUri",
          "type": "string"
        },
        {
          "internalType": "uint256",
          "name": "_rareCost",
          "type": "uint256"
        },
        {
          "internalType": "uint256",
          "name": "_commonCost",
          "type": "uint256"
        },
        {
          "internalType": "uint256",
          "name": "_maxSupply",
          "type": "uint256"
        },
        {
          "internalType": "uint256",
          "name": "_maxMintAmount",
          "type": "uint256"
        },
        {
          "internalType": "uint256",
          "name": "_startingTokenId",
          "type": "uint256"
        }
      ],
      "stateMutability": "nonpayable",
      "type": "constructor"
    },
    {
      "anonymous": false,
      "inputs": [
        {
          "indexed": true,
          "internalType": "address",
          "name": "user",
          "type": "address"
        },
        {
          "indexed": true,
          "internalType": "uint256",
          "name": "tokenId",
          "type": "uint256"
        },
        {
          "indexed": false,
          "internalType": "uint8",
          "name": "rarity",
          "type": "uint8"
        }
      ],
      "name": "AirdropClaimed",
      "type": "event"
    },
    {
      "anonymous": false,
      "inputs": [
        {
          "indexed": true,
          "internalType": "address",
          "name": "owner",
          "type": "address"
        },
        {
          "indexed": true,
          "internalType": "address",
          "name": "approved",
          "type": "address"
        },
        {
          "indexed": true,
          "internalType": "uint256",
          "name": "tokenId",
          "type": "uint256"
        }
      ],
      "name": "Approval",
      "type": "event"
    },
    {
      "anonymous": false,
      "inputs": [
        {
          "indexed": true,
          "internalType": "address",
          "name": "owner",
          "type": "address"
        },
        {
          "indexed": true,
          "internalType": "address",
          "name": "operator",
          "type": "address"
        },
        {
          "indexed": false,
          "internalType": "bool",
          "name": "approved",
          "type": "bool"
        }
      ],
      "name": "ApprovalForAll",
      "type": "event"
    },
    {
      "anonymous": false,
      "inputs": [
        {
          "indexed": true,
          "internalType": "address",
          "name": "user",
          "type": "address"
        },
        {
          "indexed": true,
          "internalType": "uint256",
          "name": "tokenId",
          "type": "uint256"
        },
        {
          "indexed": false,
          "internalType": "uint8",
          "name": "rarity",
          "type": "uint8"
        }
      ],
      "name": "OwnerMint",
      "type": "event"
    },
    {
      "anonymous": false,
      "inputs": [
        {
          "indexed": true,
          "internalType": "address",
          "name": "previousOwner",
          "type": "address"
        },
        {
          "indexed": true,
          "internalType": "address",
          "name": "newOwner",
          "type": "address"
        }
      ],
      "name": "OwnershipTransferred",
      "type": "event"
    },
    {
      "anonymous": false,
      "inputs": [
        {
          "indexed": true,
          "internalType": "address",
          "name": "from",
          "type": "address"
        },
        {
          "indexed": true,
          "internalType": "address",
          "name": "to",
          "type": "address"
        },
        {
          "indexed": true,
          "internalType": "uint256",
          "name": "tokenId",
          "type": "uint256"
        }
      ],
      "name": "Transfer",
      "type": "event"
    },
    {
      "anonymous": false,
      "inputs": [
        {
          "indexed": true,
          "internalType": "address",
          "name": "user",
          "type": "address"
        },
        {
          "indexed": true,
          "internalType": "uint256",
          "name": "tokenId",
          "type": "uint256"
        },
        {
          "indexed": false,
          "internalType": "uint8",
          "name": "rarity",
          "type": "uint8"
        }
      ],
      "name": "UserMint",
      "type": "event"
    },
    {
      "inputs": [
        {
          "internalType": "address",
          "name": "to",
          "type": "address"
        },
        {
          "internalType": "uint256",
          "name": "tokenId",
          "type": "uint256"
        }
      ],
      "name": "approve",
      "outputs": [],
      "stateMutability": "nonpayable",
      "type": "function"
    },
    {
      "inputs": [
        {
          "internalType": "address",
          "name": "owner",
          "type": "address"
        }
      ],
      "name": "balanceOf",
      "outputs": [
        {
          "internalType": "uint256",
          "name": "",
          "type": "uint256"
        }
      ],
      "stateMutability": "view",
      "type": "function",
      "constant": true
    },
    {
      "inputs": [
        {
          "internalType": "uint256",
          "name": "tokenId",
          "type": "uint256"
        }
      ],
      "name": "burn",
      "outputs": [],
      "stateMutability": "nonpayable",
      "type": "function"
    },
    {
      "inputs": [],
      "name": "commonCost",
      "outputs": [
        {
          "internalType": "uint256",
          "name": "",
          "type": "uint256"
        }
      ],
      "stateMutability": "view",
      "type": "function",
      "constant": true
    },
    {
      "inputs": [],
      "name": "commonSaleEnabled",
      "outputs": [
        {
          "internalType": "bool",
          "name": "",
          "type": "bool"
        }
      ],
      "stateMutability": "view",
      "type": "function",
      "constant": true
    },
    {
      "inputs": [
        {
          "internalType": "address",
          "name": "",
          "type": "address"
        }
      ],
      "name": "eligibleForAirdrop",
      "outputs": [
        {
          "internalType": "bool",
          "name": "",
          "type": "bool"
        }
      ],
      "stateMutability": "view",
      "type": "function",
      "constant": true
    },
    {
      "inputs": [
        {
          "internalType": "uint256",
          "name": "tokenId",
          "type": "uint256"
        }
      ],
      "name": "getApproved",
      "outputs": [
        {
          "internalType": "address",
          "name": "",
          "type": "address"
        }
      ],
      "stateMutability": "view",
      "type": "function",
      "constant": true
    },
    {
      "inputs": [
        {
          "internalType": "address",
          "name": "owner",
          "type": "address"
        },
        {
          "internalType": "address",
          "name": "operator",
          "type": "address"
        }
      ],
      "name": "isApprovedForAll",
      "outputs": [
        {
          "internalType": "bool",
          "name": "",
          "type": "bool"
        }
      ],
      "stateMutability": "view",
      "type": "function",
      "constant": true
    },
    {
      "inputs": [],
      "name": "maxMintAmount",
      "outputs": [
        {
          "internalType": "uint256",
          "name": "",
          "type": "uint256"
        }
      ],
      "stateMutability": "view",
      "type": "function",
      "constant": true
    },
    {
      "inputs": [],
      "name": "maxSupply",
      "outputs": [
        {
          "internalType": "uint256",
          "name": "",
          "type": "uint256"
        }
      ],
      "stateMutability": "view",
      "type": "function",
      "constant": true
    },
    {
      "inputs": [],
      "name": "name",
      "outputs": [
        {
          "internalType": "string",
          "name": "",
          "type": "string"
        }
      ],
      "stateMutability": "view",
      "type": "function",
      "constant": true
    },
    {
      "inputs": [],
      "name": "notRevealedUri",
      "outputs": [
        {
          "internalType": "string",
          "name": "",
          "type": "string"
        }
      ],
      "stateMutability": "view",
      "type": "function",
      "constant": true
    },
    {
      "inputs": [],
      "name": "owner",
      "outputs": [
        {
          "internalType": "address",
          "name": "",
          "type": "address"
        }
      ],
      "stateMutability": "view",
      "type": "function",
      "constant": true
    },
    {
      "inputs": [
        {
          "internalType": "uint256",
          "name": "tokenId",
          "type": "uint256"
        }
      ],
      "name": "ownerOf",
      "outputs": [
        {
          "internalType": "address",
          "name": "",
          "type": "address"
        }
      ],
      "stateMutability": "view",
      "type": "function",
      "constant": true
    },
    {
      "inputs": [],
      "name": "paused",
      "outputs": [
        {
          "internalType": "bool",
          "name": "",
          "type": "bool"
        }
      ],
      "stateMutability": "view",
      "type": "function",
      "constant": true
    },
    {
      "inputs": [],
      "name": "rareCost",
      "outputs": [
        {
          "internalType": "uint256",
          "name": "",
          "type": "uint256"
        }
      ],
      "stateMutability": "view",
      "type": "function",
      "constant": true
    },
    {
      "inputs": [],
      "name": "rareSaleEnabled",
      "outputs": [
        {
          "internalType": "bool",
          "name": "",
          "type": "bool"
        }
      ],
      "stateMutability": "view",
      "type": "function",
      "constant": true
    },
    {
      "inputs": [],
      "name": "renounceOwnership",
      "outputs": [],
      "stateMutability": "nonpayable",
      "type": "function"
    },
    {
      "inputs": [
        {
          "internalType": "address",
          "name": "from",
          "type": "address"
        },
        {
          "internalType": "address",
          "name": "to",
          "type": "address"
        },
        {
          "internalType": "uint256",
          "name": "tokenId",
          "type": "uint256"
        }
      ],
      "name": "safeTransferFrom",
      "outputs": [],
      "stateMutability": "nonpayable",
      "type": "function"
    },
    {
      "inputs": [
        {
          "internalType": "address",
          "name": "from",
          "type": "address"
        },
        {
          "internalType": "address",
          "name": "to",
          "type": "address"
        },
        {
          "internalType": "uint256",
          "name": "tokenId",
          "type": "uint256"
        },
        {
          "internalType": "bytes",
          "name": "_data",
          "type": "bytes"
        }
      ],
      "name": "safeTransferFrom",
      "outputs": [],
      "stateMutability": "nonpayable",
      "type": "function"
    },
    {
      "inputs": [
        {
          "internalType": "address",
          "name": "operator",
          "type": "address"
        },
        {
          "internalType": "bool",
          "name": "approved",
          "type": "bool"
        }
      ],
      "name": "setApprovalForAll",
      "outputs": [],
      "stateMutability": "nonpayable",
      "type": "function"
    },
    {
      "inputs": [],
      "name": "startingTokenId",
      "outputs": [
        {
          "internalType": "uint256",
          "name": "",
          "type": "uint256"
        }
      ],
      "stateMutability": "view",
      "type": "function",
      "constant": true
    },
    {
      "inputs": [],
      "name": "symbol",
      "outputs": [
        {
          "internalType": "string",
          "name": "",
          "type": "string"
        }
      ],
      "stateMutability": "view",
      "type": "function",
      "constant": true
    },
    {
      "inputs": [
        {
          "internalType": "uint256",
          "name": "index",
          "type": "uint256"
        }
      ],
      "name": "tokenByIndex",
      "outputs": [
        {
          "internalType": "uint256",
          "name": "",
          "type": "uint256"
        }
      ],
      "stateMutability": "view",
      "type": "function",
      "constant": true
    },
    {
      "inputs": [
        {
          "internalType": "address",
          "name": "owner",
          "type": "address"
        },
        {
          "internalType": "uint256",
          "name": "index",
          "type": "uint256"
        }
      ],
      "name": "tokenOfOwnerByIndex",
      "outputs": [
        {
          "internalType": "uint256",
          "name": "",
          "type": "uint256"
        }
      ],
      "stateMutability": "view",
      "type": "function",
      "constant": true
    },
    {
      "inputs": [],
      "name": "totalSupply",
      "outputs": [
        {
          "internalType": "uint256",
          "name": "",
          "type": "uint256"
        }
      ],
      "stateMutability": "view",
      "type": "function",
      "constant": true
    },
    {
      "inputs": [
        {
          "internalType": "address",
          "name": "from",
          "type": "address"
        },
        {
          "internalType": "address",
          "name": "to",
          "type": "address"
        },
        {
          "internalType": "uint256",
          "name": "tokenId",
          "type": "uint256"
        }
      ],
      "name": "transferFrom",
      "outputs": [],
      "stateMutability": "nonpayable",
      "type": "function"
    },
    {
      "inputs": [
        {
          "internalType": "address",
          "name": "newOwner",
          "type": "address"
        }
      ],
      "name": "transferOwnership",
      "outputs": [],
      "stateMutability": "nonpayable",
      "type": "function"
    },
    {
      "inputs": [],
      "name": "claimAirdrop",
      "outputs": [],
      "stateMutability": "nonpayable",
      "type": "function"
    },
    {
      "inputs": [
        {
          "internalType": "uint256",
          "name": "_mintAmount",
          "type": "uint256"
        }
      ],
      "name": "mintCommon",
      "outputs": [],
      "stateMutability": "payable",
      "type": "function",
      "payable": true
    },
    {
      "inputs": [
        {
          "internalType": "uint256",
          "name": "_mintAmount",
          "type": "uint256"
        }
      ],
      "name": "mintRare",
      "outputs": [],
      "stateMutability": "payable",
      "type": "function",
      "payable": true
    },
    {
      "inputs": [
        {
          "internalType": "address",
          "name": "_owner",
          "type": "address"
        }
      ],
      "name": "walletOfOwner",
      "outputs": [
        {
          "internalType": "uint256[]",
          "name": "",
          "type": "uint256[]"
        }
      ],
      "stateMutability": "view",
      "type": "function",
      "constant": true
    },
    {
      "inputs": [
        {
          "internalType": "uint256",
          "name": "tokenId",
          "type": "uint256"
        }
      ],
      "name": "tokenURI",
      "outputs": [
        {
          "internalType": "string",
          "name": "",
          "type": "string"
        }
      ],
      "stateMutability": "view",
      "type": "function",
      "constant": true
    },
    {
      "inputs": [
        {
          "internalType": "bytes4",
          "name": "interfaceId",
          "type": "bytes4"
        }
      ],
      "name": "supportsInterface",
      "outputs": [
        {
          "internalType": "bool",
          "name": "",
          "type": "bool"
        }
      ],
      "stateMutability": "view",
      "type": "function",
      "constant": true
    },
    {
      "inputs": [
        {
          "internalType": "address[]",
          "name": "_users",
          "type": "address[]"
        }
      ],
      "name": "addAddressesToAirdrop",
      "outputs": [],
      "stateMutability": "nonpayable",
      "type": "function"
    },
    {
      "inputs": [
        {
          "internalType": "address[]",
          "name": "_users",
          "type": "address[]"
        }
      ],
      "name": "removeAddressesToAirdrop",
      "outputs": [],
      "stateMutability": "nonpayable",
      "type": "function"
    },
    {
      "inputs": [
        {
          "internalType": "uint256[]",
          "name": "tokenIds",
          "type": "uint256[]"
        },
        {
          "internalType": "string[]",
          "name": "uris",
          "type": "string[]"
        }
      ],
      "name": "unveilNFTs",
      "outputs": [],
      "stateMutability": "nonpayable",
      "type": "function"
    },
    {
      "inputs": [
        {
          "internalType": "uint256",
          "name": "_newCost",
          "type": "uint256"
        }
      ],
      "name": "setRareCost",
      "outputs": [],
      "stateMutability": "nonpayable",
      "type": "function"
    },
    {
      "inputs": [
        {
          "internalType": "uint256",
          "name": "_newCost",
          "type": "uint256"
        }
      ],
      "name": "setCommonCost",
      "outputs": [],
      "stateMutability": "nonpayable",
      "type": "function"
    },
    {
      "inputs": [
        {
          "internalType": "uint256",
          "name": "_newmaxMintAmount",
          "type": "uint256"
        }
      ],
      "name": "setmaxMintAmount",
      "outputs": [],
      "stateMutability": "nonpayable",
      "type": "function"
    },
    {
      "inputs": [
        {
          "internalType": "string",
          "name": "_notRevealedURI",
          "type": "string"
        }
      ],
      "name": "setNotRevealedURI",
      "outputs": [],
      "stateMutability": "nonpayable",
      "type": "function"
    },
    {
      "inputs": [
        {
          "internalType": "bool",
          "name": "_state",
          "type": "bool"
        }
      ],
      "name": "pause",
      "outputs": [],
      "stateMutability": "nonpayable",
      "type": "function"
    },
    {
      "inputs": [
        {
          "internalType": "bool",
          "name": "_state",
          "type": "bool"
        }
      ],
      "name": "enableCommonSale",
      "outputs": [],
      "stateMutability": "nonpayable",
      "type": "function"
    },
    {
      "inputs": [
        {
          "internalType": "bool",
          "name": "_state",
          "type": "bool"
        }
      ],
      "name": "enableRareSale",
      "outputs": [],
      "stateMutability": "nonpayable",
      "type": "function"
    },
    {
      "inputs": [],
      "name": "withdraw",
      "outputs": [],
      "stateMutability": "nonpayable",
      "type": "function"
    }
  ],
  "bytecode": "0x60806040526000601060006101000a81548160ff0219169083151502179055503480156200002c57600080fd5b50604051620062f6380380620062f6833981810160405281019062000052919062000515565b878781600090805190602001906200006c9291906200028d565b508060019080519060200190620000859291906200028d565b505050620000a86200009c620000ea60201b60201c565b620000f260201b60201c565b620000b986620001b860201b60201c565b84600c8190555083600d8190555082600e8190555081600f8190555080601281905550505050505050505062000723565b600033905090565b6000600b60009054906101000a900473ffffffffffffffffffffffffffffffffffffffff16905081600b60006101000a81548173ffffffffffffffffffffffffffffffffffffffff021916908373ffffffffffffffffffffffffffffffffffffffff1602179055508173ffffffffffffffffffffffffffffffffffffffff168173ffffffffffffffffffffffffffffffffffffffff167f8be0079c531659141344cd1fd0a4f28419497f9722a3daafe3b4186f6b6457e060405160405180910390a35050565b620001c8620000ea60201b60201c565b73ffffffffffffffffffffffffffffffffffffffff16620001ee6200026360201b60201c565b73ffffffffffffffffffffffffffffffffffffffff161462000247576040517f08c379a00000000000000000000000000000000000000000000000000000000081526004016200023e906200069c565b60405180910390fd5b80601190805190602001906200025f9291906200028d565b5050565b6000600b60009054906101000a900473ffffffffffffffffffffffffffffffffffffffff16905090565b8280546200029b90620006ed565b90600052602060002090601f016020900481019282620002bf57600085556200030b565b82601f10620002da57805160ff19168380011785556200030b565b828001600101855582156200030b579182015b828111156200030a578251825591602001919060010190620002ed565b5b5090506200031a91906200031e565b5090565b5b80821115620003395760008160009055506001016200031f565b5090565b6000604051905090565b600080fd5b600080fd5b600080fd5b600080fd5b6000601f19601f8301169050919050565b7f4e487b7100000000000000000000000000000000000000000000000000000000600052604160045260246000fd5b620003a6826200035b565b810181811067ffffffffffffffff82111715620003c857620003c76200036c565b5b80604052505050565b6000620003dd6200033d565b9050620003eb82826200039b565b919050565b600067ffffffffffffffff8211156200040e576200040d6200036c565b5b62000419826200035b565b9050602081019050919050565b60005b838110156200044657808201518184015260208101905062000429565b8381111562000456576000848401525b50505050565b6000620004736200046d84620003f0565b620003d1565b90508281526020810184848401111562000492576200049162000356565b5b6200049f84828562000426565b509392505050565b600082601f830112620004bf57620004be62000351565b5b8151620004d18482602086016200045c565b91505092915050565b6000819050919050565b620004ef81620004da565b8114620004fb57600080fd5b50565b6000815190506200050f81620004e4565b92915050565b600080600080600080600080610100898b03121562000539576200053862000347565b5b600089015167ffffffffffffffff8111156200055a57620005596200034c565b5b620005688b828c01620004a7565b985050602089015167ffffffffffffffff8111156200058c576200058b6200034c565b5b6200059a8b828c01620004a7565b975050604089015167ffffffffffffffff811115620005be57620005bd6200034c565b5b620005cc8b828c01620004a7565b9650506060620005df8b828c01620004fe565b9550506080620005f28b828c01620004fe565b94505060a0620006058b828c01620004fe565b93505060c0620006188b828c01620004fe565b92505060e06200062b8b828c01620004fe565b9150509295985092959890939650565b600082825260208201905092915050565b7f4f776e61626c653a2063616c6c6572206973206e6f7420746865206f776e6572600082015250565b6000620006846020836200063b565b915062000691826200064c565b602082019050919050565b60006020820190508181036000830152620006b78162000675565b9050919050565b7f4e487b7100000000000000000000000000000000000000000000000000000000600052602260045260246000fd5b600060028204905060018216806200070657607f821691505b602082108114156200071d576200071c620006be565b5b50919050565b615bc380620007336000396000f3fe6080604052600436106102725760003560e01c80636352211e1161014f5780639f34c004116100c1578063d356e2351161007a578063d356e23514610932578063d5abeb011461095b578063e985e9c514610986578063f2c4ce1e146109c3578063f2fde38b146109ec578063f9b9761f14610a1557610272565b80639f34c00414610824578063a22cb4651461084d578063b4f18d8d14610876578063b88d4fde146108a1578063c1fedc35146108ca578063c87b56dd146108f557610272565b8063880d0db211610113578063880d0db2146107265780638963718b146107515780638c4cc8371461077a5780638da5cb5b146107a357806395d89b41146107ce5780639d025b15146107f957610272565b80636352211e1461064357806370a0823114610680578063715018a6146106bd5780637c3e3cb2146106d45780637f00c7a6146106fd57610272565b806329bdc1bb116101e857806342842e0e116101ac57806342842e0e1461053557806342966c681461055e578063438b6300146105875780634f6ccce7146105c45780635b88349d146106015780635c975abb1461061857610272565b806329bdc1bb146104715780632a4577d01461049c5780632f745c59146104b857806335a6a96f146104f55780633ccfd60b1461051e57610272565b8063095ea7b31161023a578063095ea7b31461037057806318160ddd1461039957806319938631146103c4578063239c70ae1461040157806323b872dd1461042c57806327c4228a1461045557610272565b806301ffc9a71461027757806302329a29146102b457806306fdde03146102dd578063081812fc14610308578063081c8c4414610345575b600080fd5b34801561028357600080fd5b5061029e60048036038101906102999190613c70565b610a3e565b6040516102ab9190613cb8565b60405180910390f35b3480156102c057600080fd5b506102db60048036038101906102d69190613cff565b610a50565b005b3480156102e957600080fd5b506102f2610ae9565b6040516102ff9190613dc5565b60405180910390f35b34801561031457600080fd5b5061032f600480360381019061032a9190613e1d565b610b7b565b60405161033c9190613e8b565b60405180910390f35b34801561035157600080fd5b5061035a610c00565b6040516103679190613dc5565b60405180910390f35b34801561037c57600080fd5b5061039760048036038101906103929190613ed2565b610c8e565b005b3480156103a557600080fd5b506103ae610da6565b6040516103bb9190613f21565b60405180910390f35b3480156103d057600080fd5b506103eb60048036038101906103e69190613f3c565b610db3565b6040516103f89190613cb8565b60405180910390f35b34801561040d57600080fd5b50610416610dd3565b6040516104239190613f21565b60405180910390f35b34801561043857600080fd5b50610453600480360381019061044e9190613f69565b610dd9565b005b61046f600480360381019061046a9190613e1d565b610e39565b005b34801561047d57600080fd5b50610486610f21565b6040516104939190613f21565b60405180910390f35b6104b660048036038101906104b19190613e1d565b610f27565b005b3480156104c457600080fd5b506104df60048036038101906104da9190613ed2565b61100f565b6040516104ec9190613f21565b60405180910390f35b34801561050157600080fd5b5061051c60048036038101906105179190613e1d565b6110b4565b005b34801561052a57600080fd5b5061053361113a565b005b34801561054157600080fd5b5061055c60048036038101906105579190613f69565b61120c565b005b34801561056a57600080fd5b5061058560048036038101906105809190613e1d565b61122c565b005b34801561059357600080fd5b506105ae60048036038101906105a99190613f3c565b611288565b6040516105bb919061407a565b60405180910390f35b3480156105d057600080fd5b506105eb60048036038101906105e69190613e1d565b611336565b6040516105f89190613f21565b60405180910390f35b34801561060d57600080fd5b506106166113a7565b005b34801561062457600080fd5b5061062d6115e3565b60405161063a9190613cb8565b60405180910390f35b34801561064f57600080fd5b5061066a60048036038101906106659190613e1d565b6115f6565b6040516106779190613e8b565b60405180910390f35b34801561068c57600080fd5b506106a760048036038101906106a29190613f3c565b6116a8565b6040516106b49190613f21565b60405180910390f35b3480156106c957600080fd5b506106d2611760565b005b3480156106e057600080fd5b506106fb60048036038101906106f6919061437a565b6117e8565b005b34801561070957600080fd5b50610724600480360381019061071f9190613e1d565b611974565b005b34801561073257600080fd5b5061073b6119fa565b6040516107489190613cb8565b60405180910390f35b34801561075d57600080fd5b5061077860048036038101906107739190613e1d565b611a0d565b005b34801561078657600080fd5b506107a1600480360381019061079c91906144b5565b611a93565b005b3480156107af57600080fd5b506107b8611ba4565b6040516107c59190613e8b565b60405180910390f35b3480156107da57600080fd5b506107e3611bce565b6040516107f09190613dc5565b60405180910390f35b34801561080557600080fd5b5061080e611c60565b60405161081b9190613f21565b60405180910390f35b34801561083057600080fd5b5061084b60048036038101906108469190613cff565b611c66565b005b34801561085957600080fd5b50610874600480360381019061086f91906144fe565b611cff565b005b34801561088257600080fd5b5061088b611d15565b6040516108989190613f21565b60405180910390f35b3480156108ad57600080fd5b506108c860048036038101906108c391906145df565b611d1b565b005b3480156108d657600080fd5b506108df611d7d565b6040516108ec9190613cb8565b60405180910390f35b34801561090157600080fd5b5061091c60048036038101906109179190613e1d565b611d90565b6040516109299190613dc5565b60405180910390f35b34801561093e57600080fd5b5061095960048036038101906109549190613cff565b611da2565b005b34801561096757600080fd5b50610970611e3b565b60405161097d9190613f21565b60405180910390f35b34801561099257600080fd5b506109ad60048036038101906109a89190614662565b611e41565b6040516109ba9190613cb8565b60405180910390f35b3480156109cf57600080fd5b506109ea60048036038101906109e591906146a2565b611ed5565b005b3480156109f857600080fd5b50610a136004803603810190610a0e9190613f3c565b611f6b565b005b348015610a2157600080fd5b50610a3c6004803603810190610a3791906144b5565b612063565b005b6000610a4982612174565b9050919050565b610a586121ee565b73ffffffffffffffffffffffffffffffffffffffff16610a76611ba4565b73ffffffffffffffffffffffffffffffffffffffff1614610acc576040517f08c379a0000000000000000000000000000000000000000000000000000000008152600401610ac390614737565b60405180910390fd5b80601060006101000a81548160ff02191690831515021790555050565b606060008054610af890614786565b80601f0160208091040260200160405190810160405280929190818152602001828054610b2490614786565b8015610b715780601f10610b4657610100808354040283529160200191610b71565b820191906000526020600020905b815481529060010190602001808311610b5457829003601f168201915b5050505050905090565b6000610b86826121f6565b610bc5576040517f08c379a0000000000000000000000000000000000000000000000000000000008152600401610bbc9061482a565b60405180910390fd5b6004600083815260200190815260200160002060009054906101000a900473ffffffffffffffffffffffffffffffffffffffff169050919050565b60118054610c0d90614786565b80601f0160208091040260200160405190810160405280929190818152602001828054610c3990614786565b8015610c865780601f10610c5b57610100808354040283529160200191610c86565b820191906000526020600020905b815481529060010190602001808311610c6957829003601f168201915b505050505081565b6000610c99826115f6565b90508073ffffffffffffffffffffffffffffffffffffffff168373ffffffffffffffffffffffffffffffffffffffff161415610d0a576040517f08c379a0000000000000000000000000000000000000000000000000000000008152600401610d01906148bc565b60405180910390fd5b8073ffffffffffffffffffffffffffffffffffffffff16610d296121ee565b73ffffffffffffffffffffffffffffffffffffffff161480610d585750610d5781610d526121ee565b611e41565b5b610d97576040517f08c379a0000000000000000000000000000000000000000000000000000000008152600401610d8e9061494e565b60405180910390fd5b610da18383612262565b505050565b6000600880549050905090565b60146020528060005260406000206000915054906101000a900460ff1681565b600f5481565b610dea610de46121ee565b8261231b565b610e29576040517f08c379a0000000000000000000000000000000000000000000000000000000008152600401610e20906149e0565b60405180910390fd5b610e348383836123f9565b505050565b601360009054906101000a900460ff16610e88576040517f08c379a0000000000000000000000000000000000000000000000000000000008152600401610e7f90614a4c565b60405180910390fd5b610e90611ba4565b73ffffffffffffffffffffffffffffffffffffffff163373ffffffffffffffffffffffffffffffffffffffff1614610f135780600d54610ed09190614a9b565b341015610f12576040517f08c379a0000000000000000000000000000000000000000000000000000000008152600401610f0990614b41565b60405180910390fd5b5b610f1e816000612660565b50565b600c5481565b601360019054906101000a900460ff16610f76576040517f08c379a0000000000000000000000000000000000000000000000000000000008152600401610f6d90614a4c565b60405180910390fd5b610f7e611ba4565b73ffffffffffffffffffffffffffffffffffffffff163373ffffffffffffffffffffffffffffffffffffffff16146110015780600c54610fbe9190614a9b565b341015611000576040517f08c379a0000000000000000000000000000000000000000000000000000000008152600401610ff790614b41565b60405180910390fd5b5b61100c816001612660565b50565b600061101a836116a8565b821061105b576040517f08c379a000000000000000000000000000000000000000000000000000000000815260040161105290614bd3565b60405180910390fd5b600660008473ffffffffffffffffffffffffffffffffffffffff1673ffffffffffffffffffffffffffffffffffffffff168152602001908152602001600020600083815260200190815260200160002054905092915050565b6110bc6121ee565b73ffffffffffffffffffffffffffffffffffffffff166110da611ba4565b73ffffffffffffffffffffffffffffffffffffffff1614611130576040517f08c379a000000000000000000000000000000000000000000000000000000000815260040161112790614737565b60405180910390fd5b80600d8190555050565b6111426121ee565b73ffffffffffffffffffffffffffffffffffffffff16611160611ba4565b73ffffffffffffffffffffffffffffffffffffffff16146111b6576040517f08c379a00000000000000000000000000000000000000000000000000000000081526004016111ad90614737565b60405180910390fd5b60006111c0611ba4565b90508073ffffffffffffffffffffffffffffffffffffffff166108fc479081150290604051600060405180830381858888f19350505050158015611208573d6000803e3d6000fd5b5050565b61122783838360405180602001604052806000815250611d1b565b505050565b61123d6112376121ee565b8261231b565b61127c576040517f08c379a000000000000000000000000000000000000000000000000000000000815260040161127390614c65565b60405180910390fd5b611285816129b3565b50565b60606000611295836116a8565b905060008167ffffffffffffffff8111156112b3576112b26140a1565b5b6040519080825280602002602001820160405280156112e15781602001602082028036833780820191505090505b50905060005b8281101561132b576112f9858261100f565b82828151811061130c5761130b614c85565b5b602002602001018181525050808061132390614cb4565b9150506112e7565b508092505050919050565b6000611340610da6565b8210611381576040517f08c379a000000000000000000000000000000000000000000000000000000000815260040161137890614d6f565b60405180910390fd5b6008828154811061139557611394614c85565b5b90600052602060002001549050919050565b60011515601460003373ffffffffffffffffffffffffffffffffffffffff1673ffffffffffffffffffffffffffffffffffffffff16815260200190815260200160002060009054906101000a900460ff1615151461143a576040517f08c379a000000000000000000000000000000000000000000000000000000000815260040161143190614e01565b60405180910390fd5b6000601460003373ffffffffffffffffffffffffffffffffffffffff1673ffffffffffffffffffffffffffffffffffffffff16815260200190815260200160002060006101000a81548160ff021916908315150217905550600061149c610da6565b9050601060009054906101000a900460ff16156114b857600080fd5b600e546001826114c89190614e21565b11156114d357600080fd5b60006001826012546114e59190614e21565b6114ef9190614e21565b90506114fb33826129bf565b61158f816011805461150c90614786565b80601f016020809104026020016040519081016040528092919081815260200182805461153890614786565b80156115855780601f1061155a57610100808354040283529160200191611585565b820191906000526020600020905b81548152906001019060200180831161156857829003601f168201915b50505050506129dd565b803373ffffffffffffffffffffffffffffffffffffffff167fb4f4b5792584abad483262314f4a50d2ff0134d77eca5652bf30873f3846015160006040516115d79190614ec9565b60405180910390a35050565b601060009054906101000a900460ff1681565b6000806002600084815260200190815260200160002060009054906101000a900473ffffffffffffffffffffffffffffffffffffffff169050600073ffffffffffffffffffffffffffffffffffffffff168173ffffffffffffffffffffffffffffffffffffffff16141561169f576040517f08c379a000000000000000000000000000000000000000000000000000000000815260040161169690614f56565b60405180910390fd5b80915050919050565b60008073ffffffffffffffffffffffffffffffffffffffff168273ffffffffffffffffffffffffffffffffffffffff161415611719576040517f08c379a000000000000000000000000000000000000000000000000000000000815260040161171090614fe8565b60405180910390fd5b600360008373ffffffffffffffffffffffffffffffffffffffff1673ffffffffffffffffffffffffffffffffffffffff168152602001908152602001600020549050919050565b6117686121ee565b73ffffffffffffffffffffffffffffffffffffffff16611786611ba4565b73ffffffffffffffffffffffffffffffffffffffff16146117dc576040517f08c379a00000000000000000000000000000000000000000000000000000000081526004016117d390614737565b60405180910390fd5b6117e66000612a51565b565b6117f06121ee565b73ffffffffffffffffffffffffffffffffffffffff1661180e611ba4565b73ffffffffffffffffffffffffffffffffffffffff1614611864576040517f08c379a000000000000000000000000000000000000000000000000000000000815260040161185b90614737565b60405180910390fd5b80518251146118a8576040517f08c379a000000000000000000000000000000000000000000000000000000000815260040161189f9061507a565b60405180910390fd5b60005b825181101561196f5760008382815181106118c9576118c8614c85565b5b6020026020010151905060008383815181106118e8576118e7614c85565b5b6020026020010151905060116040516020016119049190615139565b6040516020818303038152906040528051906020012061192383611d90565b6040516020016119339190615181565b60405160208183030381529060405280519060200120141561195a5761195982826129dd565b5b5050808061196790614cb4565b9150506118ab565b505050565b61197c6121ee565b73ffffffffffffffffffffffffffffffffffffffff1661199a611ba4565b73ffffffffffffffffffffffffffffffffffffffff16146119f0576040517f08c379a00000000000000000000000000000000000000000000000000000000081526004016119e790614737565b60405180910390fd5b80600f8190555050565b601360009054906101000a900460ff1681565b611a156121ee565b73ffffffffffffffffffffffffffffffffffffffff16611a33611ba4565b73ffffffffffffffffffffffffffffffffffffffff1614611a89576040517f08c379a0000000000000000000000000000000000000000000000000000000008152600401611a8090614737565b60405180910390fd5b80600c8190555050565b611a9b6121ee565b73ffffffffffffffffffffffffffffffffffffffff16611ab9611ba4565b73ffffffffffffffffffffffffffffffffffffffff1614611b0f576040517f08c379a0000000000000000000000000000000000000000000000000000000008152600401611b0690614737565b60405180910390fd5b60005b8151811015611ba057600060146000848481518110611b3457611b33614c85565b5b602002602001015173ffffffffffffffffffffffffffffffffffffffff1673ffffffffffffffffffffffffffffffffffffffff16815260200190815260200160002060006101000a81548160ff0219169083151502179055508080611b9890614cb4565b915050611b12565b5050565b6000600b60009054906101000a900473ffffffffffffffffffffffffffffffffffffffff16905090565b606060018054611bdd90614786565b80601f0160208091040260200160405190810160405280929190818152602001828054611c0990614786565b8015611c565780601f10611c2b57610100808354040283529160200191611c56565b820191906000526020600020905b815481529060010190602001808311611c3957829003601f168201915b5050505050905090565b600d5481565b611c6e6121ee565b73ffffffffffffffffffffffffffffffffffffffff16611c8c611ba4565b73ffffffffffffffffffffffffffffffffffffffff1614611ce2576040517f08c379a0000000000000000000000000000000000000000000000000000000008152600401611cd990614737565b60405180910390fd5b80601360016101000a81548160ff02191690831515021790555050565b611d11611d0a6121ee565b8383612b17565b5050565b60125481565b611d2c611d266121ee565b8361231b565b611d6b576040517f08c379a0000000000000000000000000000000000000000000000000000000008152600401611d62906149e0565b60405180910390fd5b611d7784848484612c84565b50505050565b601360019054906101000a900460ff1681565b6060611d9b82612ce0565b9050919050565b611daa6121ee565b73ffffffffffffffffffffffffffffffffffffffff16611dc8611ba4565b73ffffffffffffffffffffffffffffffffffffffff1614611e1e576040517f08c379a0000000000000000000000000000000000000000000000000000000008152600401611e1590614737565b60405180910390fd5b80601360006101000a81548160ff02191690831515021790555050565b600e5481565b6000600560008473ffffffffffffffffffffffffffffffffffffffff1673ffffffffffffffffffffffffffffffffffffffff16815260200190815260200160002060008373ffffffffffffffffffffffffffffffffffffffff1673ffffffffffffffffffffffffffffffffffffffff16815260200190815260200160002060009054906101000a900460ff16905092915050565b611edd6121ee565b73ffffffffffffffffffffffffffffffffffffffff16611efb611ba4565b73ffffffffffffffffffffffffffffffffffffffff1614611f51576040517f08c379a0000000000000000000000000000000000000000000000000000000008152600401611f4890614737565b60405180910390fd5b8060119080519060200190611f67929190613b21565b5050565b611f736121ee565b73ffffffffffffffffffffffffffffffffffffffff16611f91611ba4565b73ffffffffffffffffffffffffffffffffffffffff1614611fe7576040517f08c379a0000000000000000000000000000000000000000000000000000000008152600401611fde90614737565b60405180910390fd5b600073ffffffffffffffffffffffffffffffffffffffff168173ffffffffffffffffffffffffffffffffffffffff161415612057576040517f08c379a000000000000000000000000000000000000000000000000000000000815260040161204e9061520a565b60405180910390fd5b61206081612a51565b50565b61206b6121ee565b73ffffffffffffffffffffffffffffffffffffffff16612089611ba4565b73ffffffffffffffffffffffffffffffffffffffff16146120df576040517f08c379a00000000000000000000000000000000000000000000000000000000081526004016120d690614737565b60405180910390fd5b60005b81518110156121705760016014600084848151811061210457612103614c85565b5b602002602001015173ffffffffffffffffffffffffffffffffffffffff1673ffffffffffffffffffffffffffffffffffffffff16815260200190815260200160002060006101000a81548160ff021916908315150217905550808061216890614cb4565b9150506120e2565b5050565b60007f780e9d63000000000000000000000000000000000000000000000000000000007bffffffffffffffffffffffffffffffffffffffffffffffffffffffff1916827bffffffffffffffffffffffffffffffffffffffffffffffffffffffff191614806121e757506121e682612e32565b5b9050919050565b600033905090565b60008073ffffffffffffffffffffffffffffffffffffffff166002600084815260200190815260200160002060009054906101000a900473ffffffffffffffffffffffffffffffffffffffff1673ffffffffffffffffffffffffffffffffffffffff1614159050919050565b816004600083815260200190815260200160002060006101000a81548173ffffffffffffffffffffffffffffffffffffffff021916908373ffffffffffffffffffffffffffffffffffffffff160217905550808273ffffffffffffffffffffffffffffffffffffffff166122d5836115f6565b73ffffffffffffffffffffffffffffffffffffffff167f8c5be1e5ebec7d5bd14f71427d1e84f3dd0314c0f7b2291e5b200ac8c7c3b92560405160405180910390a45050565b6000612326826121f6565b612365576040517f08c379a000000000000000000000000000000000000000000000000000000000815260040161235c9061529c565b60405180910390fd5b6000612370836115f6565b90508073ffffffffffffffffffffffffffffffffffffffff168473ffffffffffffffffffffffffffffffffffffffff1614806123df57508373ffffffffffffffffffffffffffffffffffffffff166123c784610b7b565b73ffffffffffffffffffffffffffffffffffffffff16145b806123f057506123ef8185611e41565b5b91505092915050565b8273ffffffffffffffffffffffffffffffffffffffff16612419826115f6565b73ffffffffffffffffffffffffffffffffffffffff161461246f576040517f08c379a00000000000000000000000000000000000000000000000000000000081526004016124669061532e565b60405180910390fd5b600073ffffffffffffffffffffffffffffffffffffffff168273ffffffffffffffffffffffffffffffffffffffff1614156124df576040517f08c379a00000000000000000000000000000000000000000000000000000000081526004016124d6906153c0565b60405180910390fd5b6124ea838383612f14565b6124f5600082612262565b6001600360008573ffffffffffffffffffffffffffffffffffffffff1673ffffffffffffffffffffffffffffffffffffffff168152602001908152602001600020600082825461254591906153e0565b925050819055506001600360008473ffffffffffffffffffffffffffffffffffffffff1673ffffffffffffffffffffffffffffffffffffffff168152602001908152602001600020600082825461259c9190614e21565b92505081905550816002600083815260200190815260200160002060006101000a81548173ffffffffffffffffffffffffffffffffffffffff021916908373ffffffffffffffffffffffffffffffffffffffff160217905550808273ffffffffffffffffffffffffffffffffffffffff168473ffffffffffffffffffffffffffffffffffffffff167fddf252ad1be2c89b69c2b068fc378daa952ba7f163c4a11628f55a4df523b3ef60405160405180910390a461265b838383612f24565b505050565b600061266a610da6565b9050601060009054906101000a900460ff16156126bc576040517f08c379a00000000000000000000000000000000000000000000000000000000081526004016126b390615460565b60405180910390fd5b600083116126ff576040517f08c379a00000000000000000000000000000000000000000000000000000000081526004016126f6906154cc565b60405180910390fd5b612707611ba4565b73ffffffffffffffffffffffffffffffffffffffff163373ffffffffffffffffffffffffffffffffffffffff1614806127425750600f548311155b612781576040517f08c379a00000000000000000000000000000000000000000000000000000000081526004016127789061555e565b60405180910390fd5b600e5483826127909190614e21565b11156127d1576040517f08c379a00000000000000000000000000000000000000000000000000000000081526004016127c8906155f0565b60405180910390fd5b6000816012546127e19190614e21565b90506000600190505b8481116129ac576128063382846128019190614e21565b6129bf565b6128a581836128159190614e21565b6011805461282290614786565b80601f016020809104026020016040519081016040528092919081815260200182805461284e90614786565b801561289b5780601f106128705761010080835404028352916020019161289b565b820191906000526020600020905b81548152906001019060200180831161287e57829003601f168201915b50505050506129dd565b6128ad611ba4565b73ffffffffffffffffffffffffffffffffffffffff163373ffffffffffffffffffffffffffffffffffffffff161461293e5780826128eb9190614e21565b3373ffffffffffffffffffffffffffffffffffffffff167f73d22edf4a85f7859e559762af99458a06810165cefecc62169812d1f6376a2486604051612931919061561f565b60405180910390a3612999565b808261294a9190614e21565b3373ffffffffffffffffffffffffffffffffffffffff167f7a1e1e849e7633f1c42868f8bcc77363bc78abd1491f96bac43e252dad41ce4c86604051612990919061561f565b60405180910390a35b80806129a490614cb4565b9150506127ea565b5050505050565b6129bc81612f29565b50565b6129d9828260405180602001604052806000815250612f7c565b5050565b6129e6826121f6565b612a25576040517f08c379a0000000000000000000000000000000000000000000000000000000008152600401612a1c906156ac565b60405180910390fd5b80600a60008481526020019081526020016000209080519060200190612a4c929190613b21565b505050565b6000600b60009054906101000a900473ffffffffffffffffffffffffffffffffffffffff16905081600b60006101000a81548173ffffffffffffffffffffffffffffffffffffffff021916908373ffffffffffffffffffffffffffffffffffffffff1602179055508173ffffffffffffffffffffffffffffffffffffffff168173ffffffffffffffffffffffffffffffffffffffff167f8be0079c531659141344cd1fd0a4f28419497f9722a3daafe3b4186f6b6457e060405160405180910390a35050565b8173ffffffffffffffffffffffffffffffffffffffff168373ffffffffffffffffffffffffffffffffffffffff161415612b86576040517f08c379a0000000000000000000000000000000000000000000000000000000008152600401612b7d90615718565b60405180910390fd5b80600560008573ffffffffffffffffffffffffffffffffffffffff1673ffffffffffffffffffffffffffffffffffffffff16815260200190815260200160002060008473ffffffffffffffffffffffffffffffffffffffff1673ffffffffffffffffffffffffffffffffffffffff16815260200190815260200160002060006101000a81548160ff0219169083151502179055508173ffffffffffffffffffffffffffffffffffffffff168373ffffffffffffffffffffffffffffffffffffffff167f17307eab39ab6107e8899845ad3d59bd9653f200f220920489ca2b5937696c3183604051612c779190613cb8565b60405180910390a3505050565b612c8f8484846123f9565b612c9b84848484612fd7565b612cda576040517f08c379a0000000000000000000000000000000000000000000000000000000008152600401612cd1906157aa565b60405180910390fd5b50505050565b6060612ceb826121f6565b612d2a576040517f08c379a0000000000000000000000000000000000000000000000000000000008152600401612d219061583c565b60405180910390fd5b6000600a60008481526020019081526020016000208054612d4a90614786565b80601f0160208091040260200160405190810160405280929190818152602001828054612d7690614786565b8015612dc35780601f10612d9857610100808354040283529160200191612dc3565b820191906000526020600020905b815481529060010190602001808311612da657829003601f168201915b505050505090506000612dd461315f565b9050600081511415612dea578192505050612e2d565b600082511115612e1f578082604051602001612e0792919061585c565b60405160208183030381529060405292505050612e2d565b612e2884613176565b925050505b919050565b60007f80ac58cd000000000000000000000000000000000000000000000000000000007bffffffffffffffffffffffffffffffffffffffffffffffffffffffff1916827bffffffffffffffffffffffffffffffffffffffffffffffffffffffff19161480612efd57507f5b5e139f000000000000000000000000000000000000000000000000000000007bffffffffffffffffffffffffffffffffffffffffffffffffffffffff1916827bffffffffffffffffffffffffffffffffffffffffffffffffffffffff1916145b80612f0d5750612f0c8261321d565b5b9050919050565b612f1f838383613287565b505050565b505050565b612f328161339b565b6000600a60008381526020019081526020016000208054612f5290614786565b905014612f7957600a60008281526020019081526020016000206000612f789190613ba7565b5b50565b612f8683836134b8565b612f936000848484612fd7565b612fd2576040517f08c379a0000000000000000000000000000000000000000000000000000000008152600401612fc9906157aa565b60405180910390fd5b505050565b6000612ff88473ffffffffffffffffffffffffffffffffffffffff16613692565b15613152578373ffffffffffffffffffffffffffffffffffffffff1663150b7a026130216121ee565b8786866040518563ffffffff1660e01b815260040161304394939291906158d5565b6020604051808303816000875af192505050801561307f57506040513d601f19601f8201168201806040525081019061307c9190615936565b60015b613102573d80600081146130af576040519150601f19603f3d011682016040523d82523d6000602084013e6130b4565b606091505b506000815114156130fa576040517f08c379a00000000000000000000000000000000000000000000000000000000081526004016130f1906157aa565b60405180910390fd5b805181602001fd5b63150b7a0260e01b7bffffffffffffffffffffffffffffffffffffffffffffffffffffffff1916817bffffffffffffffffffffffffffffffffffffffffffffffffffffffff191614915050613157565b600190505b949350505050565b606060405180602001604052806000815250905090565b6060613181826121f6565b6131c0576040517f08c379a00000000000000000000000000000000000000000000000000000000081526004016131b7906159d5565b60405180910390fd5b60006131ca61315f565b905060008151116131ea5760405180602001604052806000815250613215565b806131f4846136b5565b60405160200161320592919061585c565b6040516020818303038152906040525b915050919050565b60007f01ffc9a7000000000000000000000000000000000000000000000000000000007bffffffffffffffffffffffffffffffffffffffffffffffffffffffff1916827bffffffffffffffffffffffffffffffffffffffffffffffffffffffff1916149050919050565b613292838383613816565b600073ffffffffffffffffffffffffffffffffffffffff168373ffffffffffffffffffffffffffffffffffffffff1614156132d5576132d08161381b565b613314565b8173ffffffffffffffffffffffffffffffffffffffff168373ffffffffffffffffffffffffffffffffffffffff1614613313576133128382613864565b5b5b600073ffffffffffffffffffffffffffffffffffffffff168273ffffffffffffffffffffffffffffffffffffffff16141561335757613352816139d1565b613396565b8273ffffffffffffffffffffffffffffffffffffffff168273ffffffffffffffffffffffffffffffffffffffff1614613395576133948282613aa2565b5b5b505050565b60006133a6826115f6565b90506133b481600084612f14565b6133bf600083612262565b6001600360008373ffffffffffffffffffffffffffffffffffffffff1673ffffffffffffffffffffffffffffffffffffffff168152602001908152602001600020600082825461340f91906153e0565b925050819055506002600083815260200190815260200160002060006101000a81549073ffffffffffffffffffffffffffffffffffffffff021916905581600073ffffffffffffffffffffffffffffffffffffffff168273ffffffffffffffffffffffffffffffffffffffff167fddf252ad1be2c89b69c2b068fc378daa952ba7f163c4a11628f55a4df523b3ef60405160405180910390a46134b481600084612f24565b5050565b600073ffffffffffffffffffffffffffffffffffffffff168273ffffffffffffffffffffffffffffffffffffffff161415613528576040517f08c379a000000000000000000000000000000000000000000000000000000000815260040161351f90615a41565b60405180910390fd5b613531816121f6565b15613571576040517f08c379a000000000000000000000000000000000000000000000000000000000815260040161356890615aad565b60405180910390fd5b61357d60008383612f14565b6001600360008473ffffffffffffffffffffffffffffffffffffffff1673ffffffffffffffffffffffffffffffffffffffff16815260200190815260200160002060008282546135cd9190614e21565b92505081905550816002600083815260200190815260200160002060006101000a81548173ffffffffffffffffffffffffffffffffffffffff021916908373ffffffffffffffffffffffffffffffffffffffff160217905550808273ffffffffffffffffffffffffffffffffffffffff16600073ffffffffffffffffffffffffffffffffffffffff167fddf252ad1be2c89b69c2b068fc378daa952ba7f163c4a11628f55a4df523b3ef60405160405180910390a461368e60008383612f24565b5050565b6000808273ffffffffffffffffffffffffffffffffffffffff163b119050919050565b606060008214156136fd576040518060400160405280600181526020017f30000000000000000000000000000000000000000000000000000000000000008152509050613811565b600082905060005b6000821461372f57808061371890614cb4565b915050600a826137289190615afc565b9150613705565b60008167ffffffffffffffff81111561374b5761374a6140a1565b5b6040519080825280601f01601f19166020018201604052801561377d5781602001600182028036833780820191505090505b5090505b6000851461380a5760018261379691906153e0565b9150600a856137a59190615b2d565b60306137b19190614e21565b60f81b8183815181106137c7576137c6614c85565b5b60200101907effffffffffffffffffffffffffffffffffffffffffffffffffffffffffffff1916908160001a905350600a856138039190615afc565b9450613781565b8093505050505b919050565b505050565b6008805490506009600083815260200190815260200160002081905550600881908060018154018082558091505060019003906000526020600020016000909190919091505550565b60006001613871846116a8565b61387b91906153e0565b9050600060076000848152602001908152602001600020549050818114613960576000600660008673ffffffffffffffffffffffffffffffffffffffff1673ffffffffffffffffffffffffffffffffffffffff168152602001908152602001600020600084815260200190815260200160002054905080600660008773ffffffffffffffffffffffffffffffffffffffff1673ffffffffffffffffffffffffffffffffffffffff168152602001908152602001600020600084815260200190815260200160002081905550816007600083815260200190815260200160002081905550505b6007600084815260200190815260200160002060009055600660008573ffffffffffffffffffffffffffffffffffffffff1673ffffffffffffffffffffffffffffffffffffffff16815260200190815260200160002060008381526020019081526020016000206000905550505050565b600060016008805490506139e591906153e0565b9050600060096000848152602001908152602001600020549050600060088381548110613a1557613a14614c85565b5b906000526020600020015490508060088381548110613a3757613a36614c85565b5b906000526020600020018190555081600960008381526020019081526020016000208190555060096000858152602001908152602001600020600090556008805480613a8657613a85615b5e565b5b6001900381819060005260206000200160009055905550505050565b6000613aad836116a8565b905081600660008573ffffffffffffffffffffffffffffffffffffffff1673ffffffffffffffffffffffffffffffffffffffff168152602001908152602001600020600083815260200190815260200160002081905550806007600084815260200190815260200160002081905550505050565b828054613b2d90614786565b90600052602060002090601f016020900481019282613b4f5760008555613b96565b82601f10613b6857805160ff1916838001178555613b96565b82800160010185558215613b96579182015b82811115613b95578251825591602001919060010190613b7a565b5b509050613ba39190613be7565b5090565b508054613bb390614786565b6000825580601f10613bc55750613be4565b601f016020900490600052602060002090810190613be39190613be7565b5b50565b5b80821115613c00576000816000905550600101613be8565b5090565b6000604051905090565b600080fd5b600080fd5b60007fffffffff0000000000000000000000000000000000000000000000000000000082169050919050565b613c4d81613c18565b8114613c5857600080fd5b50565b600081359050613c6a81613c44565b92915050565b600060208284031215613c8657613c85613c0e565b5b6000613c9484828501613c5b565b91505092915050565b60008115159050919050565b613cb281613c9d565b82525050565b6000602082019050613ccd6000830184613ca9565b92915050565b613cdc81613c9d565b8114613ce757600080fd5b50565b600081359050613cf981613cd3565b92915050565b600060208284031215613d1557613d14613c0e565b5b6000613d2384828501613cea565b91505092915050565b600081519050919050565b600082825260208201905092915050565b60005b83811015613d66578082015181840152602081019050613d4b565b83811115613d75576000848401525b50505050565b6000601f19601f8301169050919050565b6000613d9782613d2c565b613da18185613d37565b9350613db1818560208601613d48565b613dba81613d7b565b840191505092915050565b60006020820190508181036000830152613ddf8184613d8c565b905092915050565b6000819050919050565b613dfa81613de7565b8114613e0557600080fd5b50565b600081359050613e1781613df1565b92915050565b600060208284031215613e3357613e32613c0e565b5b6000613e4184828501613e08565b91505092915050565b600073ffffffffffffffffffffffffffffffffffffffff82169050919050565b6000613e7582613e4a565b9050919050565b613e8581613e6a565b82525050565b6000602082019050613ea06000830184613e7c565b92915050565b613eaf81613e6a565b8114613eba57600080fd5b50565b600081359050613ecc81613ea6565b92915050565b60008060408385031215613ee957613ee8613c0e565b5b6000613ef785828601613ebd565b9250506020613f0885828601613e08565b9150509250929050565b613f1b81613de7565b82525050565b6000602082019050613f366000830184613f12565b92915050565b600060208284031215613f5257613f51613c0e565b5b6000613f6084828501613ebd565b91505092915050565b600080600060608486031215613f8257613f81613c0e565b5b6000613f9086828701613ebd565b9350506020613fa186828701613ebd565b9250506040613fb286828701613e08565b9150509250925092565b600081519050919050565b600082825260208201905092915050565b6000819050602082019050919050565b613ff181613de7565b82525050565b60006140038383613fe8565b60208301905092915050565b6000602082019050919050565b600061402782613fbc565b6140318185613fc7565b935061403c83613fd8565b8060005b8381101561406d5781516140548882613ff7565b975061405f8361400f565b925050600181019050614040565b5085935050505092915050565b60006020820190508181036000830152614094818461401c565b905092915050565b600080fd5b7f4e487b7100000000000000000000000000000000000000000000000000000000600052604160045260246000fd5b6140d982613d7b565b810181811067ffffffffffffffff821117156140f8576140f76140a1565b5b80604052505050565b600061410b613c04565b905061411782826140d0565b919050565b600067ffffffffffffffff821115614137576141366140a1565b5b602082029050602081019050919050565b600080fd5b600061416061415b8461411c565b614101565b9050808382526020820190506020840283018581111561418357614182614148565b5b835b818110156141ac57806141988882613e08565b845260208401935050602081019050614185565b5050509392505050565b600082601f8301126141cb576141ca61409c565b5b81356141db84826020860161414d565b91505092915050565b600067ffffffffffffffff8211156141ff576141fe6140a1565b5b602082029050602081019050919050565b600080fd5b600067ffffffffffffffff8211156142305761422f6140a1565b5b61423982613d7b565b9050602081019050919050565b82818337600083830152505050565b600061426861426384614215565b614101565b90508281526020810184848401111561428457614283614210565b5b61428f848285614246565b509392505050565b600082601f8301126142ac576142ab61409c565b5b81356142bc848260208601614255565b91505092915050565b60006142d86142d3846141e4565b614101565b905080838252602082019050602084028301858111156142fb576142fa614148565b5b835b8181101561434257803567ffffffffffffffff8111156143205761431f61409c565b5b80860161432d8982614297565b855260208501945050506020810190506142fd565b5050509392505050565b600082601f8301126143615761436061409c565b5b81356143718482602086016142c5565b91505092915050565b6000806040838503121561439157614390613c0e565b5b600083013567ffffffffffffffff8111156143af576143ae613c13565b5b6143bb858286016141b6565b925050602083013567ffffffffffffffff8111156143dc576143db613c13565b5b6143e88582860161434c565b9150509250929050565b600067ffffffffffffffff82111561440d5761440c6140a1565b5b602082029050602081019050919050565b600061443161442c846143f2565b614101565b9050808382526020820190506020840283018581111561445457614453614148565b5b835b8181101561447d57806144698882613ebd565b845260208401935050602081019050614456565b5050509392505050565b600082601f83011261449c5761449b61409c565b5b81356144ac84826020860161441e565b91505092915050565b6000602082840312156144cb576144ca613c0e565b5b600082013567ffffffffffffffff8111156144e9576144e8613c13565b5b6144f584828501614487565b91505092915050565b6000806040838503121561451557614514613c0e565b5b600061452385828601613ebd565b925050602061453485828601613cea565b9150509250929050565b600067ffffffffffffffff821115614559576145586140a1565b5b61456282613d7b565b9050602081019050919050565b600061458261457d8461453e565b614101565b90508281526020810184848401111561459e5761459d614210565b5b6145a9848285614246565b509392505050565b600082601f8301126145c6576145c561409c565b5b81356145d684826020860161456f565b91505092915050565b600080600080608085870312156145f9576145f8613c0e565b5b600061460787828801613ebd565b945050602061461887828801613ebd565b935050604061462987828801613e08565b925050606085013567ffffffffffffffff81111561464a57614649613c13565b5b614656878288016145b1565b91505092959194509250565b6000806040838503121561467957614678613c0e565b5b600061468785828601613ebd565b925050602061469885828601613ebd565b9150509250929050565b6000602082840312156146b8576146b7613c0e565b5b600082013567ffffffffffffffff8111156146d6576146d5613c13565b5b6146e284828501614297565b91505092915050565b7f4f776e61626c653a2063616c6c6572206973206e6f7420746865206f776e6572600082015250565b6000614721602083613d37565b915061472c826146eb565b602082019050919050565b6000602082019050818103600083015261475081614714565b9050919050565b7f4e487b7100000000000000000000000000000000000000000000000000000000600052602260045260246000fd5b6000600282049050600182168061479e57607f821691505b602082108114156147b2576147b1614757565b5b50919050565b7f4552433732313a20617070726f76656420717565727920666f72206e6f6e657860008201527f697374656e7420746f6b656e0000000000000000000000000000000000000000602082015250565b6000614814602c83613d37565b915061481f826147b8565b604082019050919050565b6000602082019050818103600083015261484381614807565b9050919050565b7f4552433732313a20617070726f76616c20746f2063757272656e74206f776e6560008201527f7200000000000000000000000000000000000000000000000000000000000000602082015250565b60006148a6602183613d37565b91506148b18261484a565b604082019050919050565b600060208201905081810360008301526148d581614899565b9050919050565b7f4552433732313a20617070726f76652063616c6c6572206973206e6f74206f7760008201527f6e6572206e6f7220617070726f76656420666f7220616c6c0000000000000000602082015250565b6000614938603883613d37565b9150614943826148dc565b604082019050919050565b600060208201905081810360008301526149678161492b565b9050919050565b7f4552433732313a207472616e736665722063616c6c6572206973206e6f74206f60008201527f776e6572206e6f7220617070726f766564000000000000000000000000000000602082015250565b60006149ca603183613d37565b91506149d58261496e565b604082019050919050565b600060208201905081810360008301526149f9816149bd565b9050919050565b7f53616c65206e6f7420656e61626c656420796574000000000000000000000000600082015250565b6000614a36601483613d37565b9150614a4182614a00565b602082019050919050565b60006020820190508181036000830152614a6581614a29565b9050919050565b7f4e487b7100000000000000000000000000000000000000000000000000000000600052601160045260246000fd5b6000614aa682613de7565b9150614ab183613de7565b9250817fffffffffffffffffffffffffffffffffffffffffffffffffffffffffffffffff0483118215151615614aea57614ae9614a6c565b5b828202905092915050565b7f4e65656420617070726f70726961746520616d6f756e74206f66206574680000600082015250565b6000614b2b601e83613d37565b9150614b3682614af5565b602082019050919050565b60006020820190508181036000830152614b5a81614b1e565b9050919050565b7f455243373231456e756d657261626c653a206f776e657220696e646578206f7560008201527f74206f6620626f756e6473000000000000000000000000000000000000000000602082015250565b6000614bbd602b83613d37565b9150614bc882614b61565b604082019050919050565b60006020820190508181036000830152614bec81614bb0565b9050919050565b7f4552433732314275726e61626c653a2063616c6c6572206973206e6f74206f7760008201527f6e6572206e6f7220617070726f76656400000000000000000000000000000000602082015250565b6000614c4f603083613d37565b9150614c5a82614bf3565b604082019050919050565b60006020820190508181036000830152614c7e81614c42565b9050919050565b7f4e487b7100000000000000000000000000000000000000000000000000000000600052603260045260246000fd5b6000614cbf82613de7565b91507fffffffffffffffffffffffffffffffffffffffffffffffffffffffffffffffff821415614cf257614cf1614a6c565b5b600182019050919050565b7f455243373231456e756d657261626c653a20676c6f62616c20696e646578206f60008201527f7574206f6620626f756e64730000000000000000000000000000000000000000602082015250565b6000614d59602c83613d37565b9150614d6482614cfd565b604082019050919050565b60006020820190508181036000830152614d8881614d4c565b9050919050565b7f4f6e6c79206c69737465642075736572732063616e206d696e74206974206f6e60008201527f6365000000000000000000000000000000000000000000000000000000000000602082015250565b6000614deb602283613d37565b9150614df682614d8f565b604082019050919050565b60006020820190508181036000830152614e1a81614dde565b9050919050565b6000614e2c82613de7565b9150614e3783613de7565b9250827fffffffffffffffffffffffffffffffffffffffffffffffffffffffffffffffff03821115614e6c57614e6b614a6c565b5b828201905092915050565b6000819050919050565b600060ff82169050919050565b6000819050919050565b6000614eb3614eae614ea984614e77565b614e8e565b614e81565b9050919050565b614ec381614e98565b82525050565b6000602082019050614ede6000830184614eba565b92915050565b7f4552433732313a206f776e657220717565727920666f72206e6f6e657869737460008201527f656e7420746f6b656e0000000000000000000000000000000000000000000000602082015250565b6000614f40602983613d37565b9150614f4b82614ee4565b604082019050919050565b60006020820190508181036000830152614f6f81614f33565b9050919050565b7f4552433732313a2062616c616e636520717565727920666f7220746865207a6560008201527f726f206164647265737300000000000000000000000000000000000000000000602082015250565b6000614fd2602a83613d37565b9150614fdd82614f76565b604082019050919050565b6000602082019050818103600083015261500181614fc5565b9050919050565b7f506172616d6574657273204172726179732073686f756c64206861766520746860008201527f652073616d65206c656e67746800000000000000000000000000000000000000602082015250565b6000615064602d83613d37565b915061506f82615008565b604082019050919050565b6000602082019050818103600083015261509381615057565b9050919050565b600081905092915050565b60008190508160005260206000209050919050565b600081546150c781614786565b6150d1818661509a565b945060018216600081146150ec57600181146150fd57615130565b60ff19831686528186019350615130565b615106856150a5565b60005b8381101561512857815481890152600182019150602081019050615109565b838801955050505b50505092915050565b600061514582846150ba565b915081905092915050565b600061515b82613d2c565b615165818561509a565b9350615175818560208601613d48565b80840191505092915050565b600061518d8284615150565b915081905092915050565b7f4f776e61626c653a206e6577206f776e657220697320746865207a65726f206160008201527f6464726573730000000000000000000000000000000000000000000000000000602082015250565b60006151f4602683613d37565b91506151ff82615198565b604082019050919050565b60006020820190508181036000830152615223816151e7565b9050919050565b7f4552433732313a206f70657261746f7220717565727920666f72206e6f6e657860008201527f697374656e7420746f6b656e0000000000000000000000000000000000000000602082015250565b6000615286602c83613d37565b91506152918261522a565b604082019050919050565b600060208201905081810360008301526152b581615279565b9050919050565b7f4552433732313a207472616e736665722066726f6d20696e636f72726563742060008201527f6f776e6572000000000000000000000000000000000000000000000000000000602082015250565b6000615318602583613d37565b9150615323826152bc565b604082019050919050565b600060208201905081810360008301526153478161530b565b9050919050565b7f4552433732313a207472616e7366657220746f20746865207a65726f2061646460008201527f7265737300000000000000000000000000000000000000000000000000000000602082015250565b60006153aa602483613d37565b91506153b58261534e565b604082019050919050565b600060208201905081810360008301526153d98161539d565b9050919050565b60006153eb82613de7565b91506153f683613de7565b92508282101561540957615408614a6c565b5b828203905092915050565b7f436f6e7472616374206d75737420626520756e70617573656400000000000000600082015250565b600061544a601983613d37565b915061545582615414565b602082019050919050565b600060208201905081810360008301526154798161543d565b9050919050565b7f4d696e7420616d6f756e74206d757374206265206d6f7265207468616e203000600082015250565b60006154b6601f83613d37565b91506154c182615480565b602082019050919050565b600060208201905081810360008301526154e5816154a9565b9050919050565b7f4d696e7420616d6f756e74206d757374206265206c657373207468616e206f7260008201527f20657175616c20746f206d61784d696e74416d6f756e74000000000000000000602082015250565b6000615548603783613d37565b9150615553826154ec565b604082019050919050565b600060208201905081810360008301526155778161553b565b9050919050565b7f4d696e7420616d6f756e74206d757374206265206c657373207468616e206f7260008201527f20657175616c20746f206d6178537570706c7900000000000000000000000000602082015250565b60006155da603383613d37565b91506155e58261557e565b604082019050919050565b60006020820190508181036000830152615609816155cd565b9050919050565b61561981614e81565b82525050565b60006020820190506156346000830184615610565b92915050565b7f45524337323155524953746f726167653a2055524920736574206f66206e6f6e60008201527f6578697374656e7420746f6b656e000000000000000000000000000000000000602082015250565b6000615696602e83613d37565b91506156a18261563a565b604082019050919050565b600060208201905081810360008301526156c581615689565b9050919050565b7f4552433732313a20617070726f766520746f2063616c6c657200000000000000600082015250565b6000615702601983613d37565b915061570d826156cc565b602082019050919050565b60006020820190508181036000830152615731816156f5565b9050919050565b7f4552433732313a207472616e7366657220746f206e6f6e20455243373231526560008201527f63656976657220696d706c656d656e7465720000000000000000000000000000602082015250565b6000615794603283613d37565b915061579f82615738565b604082019050919050565b600060208201905081810360008301526157c381615787565b9050919050565b7f45524337323155524953746f726167653a2055524920717565727920666f722060008201527f6e6f6e6578697374656e7420746f6b656e000000000000000000000000000000602082015250565b6000615826603183613d37565b9150615831826157ca565b604082019050919050565b6000602082019050818103600083015261585581615819565b9050919050565b60006158688285615150565b91506158748284615150565b91508190509392505050565b600081519050919050565b600082825260208201905092915050565b60006158a782615880565b6158b1818561588b565b93506158c1818560208601613d48565b6158ca81613d7b565b840191505092915050565b60006080820190506158ea6000830187613e7c565b6158f76020830186613e7c565b6159046040830185613f12565b8181036060830152615916818461589c565b905095945050505050565b60008151905061593081613c44565b92915050565b60006020828403121561594c5761594b613c0e565b5b600061595a84828501615921565b91505092915050565b7f4552433732314d657461646174613a2055524920717565727920666f72206e6f60008201527f6e6578697374656e7420746f6b656e0000000000000000000000000000000000602082015250565b60006159bf602f83613d37565b91506159ca82615963565b604082019050919050565b600060208201905081810360008301526159ee816159b2565b9050919050565b7f4552433732313a206d696e7420746f20746865207a65726f2061646472657373600082015250565b6000615a2b602083613d37565b9150615a36826159f5565b602082019050919050565b60006020820190508181036000830152615a5a81615a1e565b9050919050565b7f4552433732313a20746f6b656e20616c7265616479206d696e74656400000000600082015250565b6000615a97601c83613d37565b9150615aa282615a61565b602082019050919050565b60006020820190508181036000830152615ac681615a8a565b9050919050565b7f4e487b7100000000000000000000000000000000000000000000000000000000600052601260045260246000fd5b6000615b0782613de7565b9150615b1283613de7565b925082615b2257615b21615acd565b5b828204905092915050565b6000615b3882613de7565b9150615b4383613de7565b925082615b5357615b52615acd565b5b828206905092915050565b7f4e487b7100000000000000000000000000000000000000000000000000000000600052603160045260246000fdfea2646970667358221220935f5bd1108e8b8eb9415c627997a86efb526d4a3b8893e3c267bfb52f2ec03464736f6c634300080b0033",
  "immutableReferences": {},
  "source": "// SPDX-License-Identifier: MIT\npragma solidity >=0.4.22 <0.9.0;\n\nimport \"@openzeppelin/contracts/access/Ownable.sol\";\nimport \"@openzeppelin/contracts/token/ERC721/extensions/ERC721Enumerable.sol\";\nimport \"@openzeppelin/contracts/token/ERC721/extensions/ERC721URIStorage.sol\";\nimport \"@openzeppelin/contracts/token/ERC721/extensions/ERC721Burnable.sol\";\n\n//TODO: add error messages\n//TODO: test the batch amount\ncontract BoredDavid is\n    ERC721Enumerable,\n    ERC721URIStorage,\n    ERC721Burnable,\n    Ownable\n{\n    event AirdropClaimed(\n        address indexed user,\n        uint256 indexed tokenId,\n        uint8 rarity\n    );\n    event OwnerMint(\n        address indexed user,\n        uint256 indexed tokenId,\n        uint8 rarity\n    );\n    event UserMint(\n        address indexed user,\n        uint256 indexed tokenId,\n        uint8 rarity\n    );\n\n    using Strings for uint256;\n\n    uint256 public rareCost;\n    uint256 public commonCost;\n    uint256 public maxSupply;\n    uint256 public maxMintAmount;\n    bool public paused = false;\n    string public notRevealedUri;\n    uint256 public startingTokenId;\n\n    bool public commonSaleEnabled;\n    bool public rareSaleEnabled;\n\n    mapping(address => bool) public eligibleForAirdrop;\n\n    constructor(\n        string memory _name,\n        string memory _symbol,\n        string memory _initNotRevealedUri,\n        uint256 _rareCost,\n        uint256 _commonCost,\n        uint256 _maxSupply,\n        uint256 _maxMintAmount,\n        uint256 _startingTokenId\n    ) ERC721(_name, _symbol) {\n        setNotRevealedURI(_initNotRevealedUri);\n        rareCost = _rareCost;\n        commonCost = _commonCost;\n        maxSupply = _maxSupply;\n        maxMintAmount = _maxMintAmount;\n        startingTokenId = _startingTokenId;\n    }\n\n    function claimAirdrop() external {\n        require(\n            eligibleForAirdrop[msg.sender] == true,\n            \"Only listed users can mint it once\"\n        );\n        eligibleForAirdrop[msg.sender] = false;\n        uint256 supply = totalSupply();\n        require(!paused);\n        require(supply + 1 <= maxSupply);\n\n        uint256 tokenId = startingTokenId + supply + 1;\n        _safeMint(msg.sender, tokenId);\n        _setTokenURI(tokenId, notRevealedUri);\n        emit AirdropClaimed(msg.sender, tokenId, 0);\n    }\n\n    function _mintToken(uint256 _mintAmount, uint8 rarity) internal {\n        uint256 supply = totalSupply();\n        require(!paused, \"Contract must be unpaused\");\n        require(_mintAmount > 0, \"Mint amount must be more than 0\");\n        require(msg.sender == owner() || _mintAmount <= maxMintAmount, \"Mint amount must be less than or equal to maxMintAmount\");\n        require(supply + _mintAmount <= maxSupply, \"Mint amount must be less than or equal to maxSupply\");\n\n        uint256 newTokenId = startingTokenId + supply;\n\n        for (uint256 i = 1; i <= _mintAmount; i++) {\n            _safeMint(msg.sender, newTokenId + i);\n            _setTokenURI(newTokenId + i, notRevealedUri);\n            if (msg.sender != owner()) {\n                emit UserMint(msg.sender, newTokenId + i, rarity);\n            } else {\n                emit OwnerMint(msg.sender, newTokenId + i, rarity);\n            }\n        }\n    }\n\n    function mintCommon(uint256 _mintAmount) external payable {\n        require(commonSaleEnabled, \"Sale not enabled yet\");\n        if (msg.sender != owner()) {\n            require(msg.value >= commonCost * _mintAmount, \"Need appropriate amount of eth\");\n        }\n        _mintToken(_mintAmount, 0);\n    }\n\n    function mintRare(uint256 _mintAmount) external payable {\n        require(rareSaleEnabled, \"Sale not enabled yet\");\n        if (msg.sender != owner()) {\n            require(msg.value >= rareCost * _mintAmount, \"Need appropriate amount of eth\");\n        }\n        _mintToken(_mintAmount, 1);\n    }\n\n    function walletOfOwner(address _owner)\n        external\n        view\n        returns (uint256[] memory)\n    {\n        uint256 ownerTokenCount = balanceOf(_owner);\n        uint256[] memory tokenIds = new uint256[](ownerTokenCount);\n        for (uint256 i = 0; i < ownerTokenCount; i++) {\n            tokenIds[i] = tokenOfOwnerByIndex(_owner, i);\n        }\n        return tokenIds;\n    }\n\n    // The following functions are overrides required by Solidity.\n    function _beforeTokenTransfer(\n        address from,\n        address to,\n        uint256 tokenId\n    ) internal override(ERC721, ERC721Enumerable) {\n        super._beforeTokenTransfer(from, to, tokenId);\n    }\n\n    function _burn(uint256 tokenId)\n        internal\n        override(ERC721, ERC721URIStorage)\n    {\n        super._burn(tokenId);\n    }\n\n    function tokenURI(uint256 tokenId)\n        public\n        view\n        override(ERC721, ERC721URIStorage)\n        returns (string memory)\n    {\n        return super.tokenURI(tokenId);\n    }\n\n    function supportsInterface(bytes4 interfaceId)\n        public\n        view\n        override(ERC721, ERC721Enumerable)\n        returns (bool)\n    {\n        return super.supportsInterface(interfaceId);\n    }\n\n    // Only owner can access these\n    function addAddressesToAirdrop(address[] memory _users) external onlyOwner {\n        for (uint256 i = 0; i < _users.length; i++) {\n            eligibleForAirdrop[_users[i]] = true;\n        }\n    }\n\n    function removeAddressesToAirdrop(address[] memory _users)\n        external\n        onlyOwner\n    {\n        for (uint256 i = 0; i < _users.length; i++) {\n            eligibleForAirdrop[_users[i]] = false;\n        }\n    }\n\n    //unveilNFTs\n\n    // One will accept a batch of nfts.\n\n    // Parameters: 2 arrays, one for token ids and one for token uris. You can update it more than once.\n\n    // We could do a mapping (unveiled -> true/false). If unveiled === true then you cannot update the tokenUri.\n\n    function unveilNFTs(uint256[] memory tokenIds, string[] memory uris)\n        external\n        onlyOwner\n    {\n        require(\n            tokenIds.length == uris.length,\n            \"Parameters Arrays should have the same length\"\n        );\n        for (uint256 i = 0; i < tokenIds.length; i++) {\n            uint256 tokenId = tokenIds[i];\n            string memory uri = uris[i];\n            if (\n                keccak256(abi.encodePacked(tokenURI(tokenId))) ==\n                keccak256(abi.encodePacked(notRevealedUri))\n            ) {\n                _setTokenURI(tokenId, uri);\n            }\n        }\n    }\n\n    function setRareCost(uint256 _newCost) external onlyOwner {\n        rareCost = _newCost;\n    }\n\n    function setCommonCost(uint256 _newCost) external onlyOwner {\n        commonCost = _newCost;\n    }\n\n    function setmaxMintAmount(uint256 _newmaxMintAmount) external onlyOwner {\n        maxMintAmount = _newmaxMintAmount;\n    }\n\n    function setNotRevealedURI(string memory _notRevealedURI) public onlyOwner {\n        notRevealedUri = _notRevealedURI;\n    }\n\n    function pause(bool _state) external onlyOwner {\n        paused = _state;\n    }\n\n    function enableCommonSale(bool _state) external onlyOwner {\n        commonSaleEnabled = _state;\n    }\n\n    function enableRareSale(bool _state) external onlyOwner {\n        rareSaleEnabled = _state;\n    }\n\n    function withdraw() external onlyOwner {\n        address _owner = owner();\n        payable(_owner).transfer(address(this).balance);\n    }\n}\n",
  "sourcePath": "/home/franz/snafu/bored-david-erc721/contracts/BoredDavid.sol",
  "compiler": {
    "name": "solc",
    "version": "0.8.11+commit.d7f03943.Emscripten.clang"
  },
  "schemaVersion": "3.4.7",
  "updatedAt": "2022-05-10T20:57:59.017Z",
  "networkType": "ethereum",
  "devdoc": {
    "kind": "dev",
    "methods": {
      "approve(address,uint256)": {
        "details": "See {IERC721-approve}."
      },
      "balanceOf(address)": {
        "details": "See {IERC721-balanceOf}."
      },
      "burn(uint256)": {
        "details": "Burns `tokenId`. See {ERC721-_burn}. Requirements: - The caller must own `tokenId` or be an approved operator."
      },
      "getApproved(uint256)": {
        "details": "See {IERC721-getApproved}."
      },
      "isApprovedForAll(address,address)": {
        "details": "See {IERC721-isApprovedForAll}."
      },
      "name()": {
        "details": "See {IERC721Metadata-name}."
      },
      "owner()": {
        "details": "Returns the address of the current owner."
      },
      "ownerOf(uint256)": {
        "details": "See {IERC721-ownerOf}."
      },
      "renounceOwnership()": {
        "details": "Leaves the contract without owner. It will not be possible to call `onlyOwner` functions anymore. Can only be called by the current owner. NOTE: Renouncing ownership will leave the contract without an owner, thereby removing any functionality that is only available to the owner."
      },
      "safeTransferFrom(address,address,uint256)": {
        "details": "See {IERC721-safeTransferFrom}."
      },
      "safeTransferFrom(address,address,uint256,bytes)": {
        "details": "See {IERC721-safeTransferFrom}."
      },
      "setApprovalForAll(address,bool)": {
        "details": "See {IERC721-setApprovalForAll}."
      },
      "symbol()": {
        "details": "See {IERC721Metadata-symbol}."
      },
      "tokenByIndex(uint256)": {
        "details": "See {IERC721Enumerable-tokenByIndex}."
      },
      "tokenOfOwnerByIndex(address,uint256)": {
        "details": "See {IERC721Enumerable-tokenOfOwnerByIndex}."
      },
      "totalSupply()": {
        "details": "See {IERC721Enumerable-totalSupply}."
      },
      "transferFrom(address,address,uint256)": {
        "details": "See {IERC721-transferFrom}."
      },
      "transferOwnership(address)": {
        "details": "Transfers ownership of the contract to a new account (`newOwner`). Can only be called by the current owner."
      }
    },
    "version": 1
  },
  "userdoc": {
    "kind": "user",
    "methods": {},
    "version": 1
  }
}